:100000000C9434010C9465010C9465010C94650109
:100010000C9465010C9465010C9465010C946501C8
:100020000C9465010C94B5080C94B5080C94B508B3
:100030000C9465010C9465010C9465010C946501A8
:100040000C9465010C9465010C9465010C94650198
:100050000C9465010C9465010C9465010C946F0778
:100060000C9465010C948B080C9461080C94650148
:100070000C9465010C9465010C9465010C94650168
:100080000C9465010C9465010C9465010C94650158
:100090000C9437080C940D080C9465010C946501C0
:1000A0000C9465010C9465010C9465010C94650138
:1000B0000C9465010C9465010C9465010C94650128
:1000C0000C9465010C9465010C9465010C94E30794
:1000D0000C94B9070C9465010C9465010C946501AE
:1000E0000C9465010C94360C0C943A0C0C9455034A
:1000F0000C94520C0C945B040C94A1030C94560CBD
:100100000C9471090C9437040C9464050C94E4026B
:100110000C94480C0C9447030C94440C0C94C00BA6
:100120000C942D0C0C947A050C949E020C94290CC2
:100130000C94F3020C94400C0C94250C0C94EE03DC
:100140000C94210C0C94300C0C944E0C0C945C0C04
:100150000C94C50B0C9471040C9445040C94600C25
:1001600000000A0B02090C0D0E0807030401000031
:10017000000000000000000000000000000000007F
:10018000000000000000000000000000121110003C
:10019000000000000000000000000000000000005F
:1001A00000000000000000002200250028002B00B5
:1001B0002E003100340002010000050108010B018E
:1001C00000002100240027002A002D003000330009
:1001D00001010000040107010A01050505050705E5
:1001E00008080808020202020A0A080804040404B3
:1001F00001010101010101010303030303030303DF
:10020000040707070C0C0C0C0C0C0C0C020202026D
:1002100006060606060606060B0B0B0B0B0B0B0B56
:100220000102102020080810204010204080020108
:1002300002010804020101020408102040808040ED
:1002400020100804020180040201804020100804EC
:10025000020108040201010204081020408001028A
:10026000040810204080710911241FBECFEFD1E295
:10027000DEBFCDBF00E00CBF24E0AAE7B2E001C0C2
:100280001D92AA38B207E1F712E0A0E0B2E0ECE27A
:10029000F3E200E00BBF02C007900D92AA37B1074E
:1002A000D9F711E0C4E3D1E000E006C021970109CD
:1002B000802FFE010E94680FC333D10780E008073A
:1002C000A9F70E94250A0C9494110C940000CF9277
:1002D000DF92EF92FF92CF93DF93EC016A017B01F3
:1002E000E889F98982E08083C11481EED806E104AF
:1002F000F104A1F060E079E08DE390E0A7019601C0
:100300000E94460F215031094109510956954795E0
:1003100037952795211580E1380798F0E889F98904
:10032000108260E874E88EE190E0A70196010E94D7
:10033000460F215031094109510956954795379586
:100340002795EC85FD853083EE85FF852083188E0B
:10035000EC89FD8986E08083EA89FB898081806160
:100360008083EA89FB89808188608083EA89FB89B0
:10037000808180688083EA89FB8980818F7D80838A
:10038000DF91CF91FF90EF90DF90CF90089590E0B4
:10039000FC01E05EFD4F249186529E4FFC0184914A
:1003A000882399F090E0880F991FFC01E054FE4FDC
:1003B000A591B491FC01EA55FE4F859194918FB7B8
:1003C000F894EC91E22BEC938FBF089520917C047C
:1003D00030917D04A9015827CA0128E030E0AC0122
:1003E000880F991F57FF04C051E2852750E19527D8
:1003F00021503109A1F790937D0480937C040895E6
:100400003FB7F89480918F0290919002A091910251
:10041000B091920226B5A89B05C02F3F19F0019616
:10042000A11DB11D3FBFBA2FA92F982F8827BC014E
:10043000CD01620F711D811D911D42E0660F771F76
:10044000881F991F4A95D1F708958F929F92AF9276
:10045000BF92CF92DF92EF92FF926B017C0180916D
:10046000820490918304892B91F10E9400024B0138
:100470005C018091820490918304DC01ED91FC91F8
:100480000084F185E02D1995892B71F40E940002FA
:10049000681979098A099B096C157D058E059F05E8
:1004A00040F38FEF9FEF40C08091820490918304CE
:1004B000DC01ED91FC910284F385E02DFF90EF903B
:1004C000DF90CF90BF90AF909F908F901994209124
:1004D00084043091850480919702909198022817A6
:1004E000390711F50E9400024B015C0180918404E0
:1004F00090918504DC01ED91FC910084F185E02D63
:100500001995892B61F40E940002681979098A09FA
:100510009B096C157D058E059F0540F3C2CF809128
:10052000840490918504C4CFFF90EF90DF90CF902A
:10053000BF90AF909F908F9008950895AF92BF9213
:10054000CF92DF92EF92FF920F931F93CF93DF939F
:100550006C017B018B01040F151FEB015E01AE18CE
:10056000BF08C017D10759F06991D601ED91FC91F0
:100570000190F081E02DC6011995892B79F7C5010D
:10058000DF91CF911F910F91FF90EF90DF90CF906F
:10059000BF90AF900895FC01A089B1898C91A68984
:1005A000B78982FD0FC09C91818D8F5F8F73228DE3
:1005B000821749F0A18DAE0FBF2FB11D5D969C93A0
:1005C000818F08958C910895FC01538D448D252FC2
:1005D00030E0842F90E0821B930B541710F0CF96DD
:1005E000089501970895FC01918D828D981761F00F
:1005F000A28DAE0FBF2FB11D5D968C91928D9F5F26
:100600009F73928F90E008958FEF9FEF08952FB71B
:10061000F8948091930290919402A0919502B091E8
:1006200096022FBF8093A1029093A202A093A302EF
:10063000B093A40289E992E00E94F30297FF26C0DA
:100640002FB7F8948091930290919402A091950213
:10065000B09196022FBF4091A1025091A2026091E9
:10066000A3027091A402841B950BA60BB70B4091BB
:100670009D0250919E0260919F027091A00284178A
:100680009507A607B707B0F28FEF9FEF0895FC011B
:10069000918D828D981731F0828DE80FF11D858D37
:1006A00090E008958FEF9FEF0895FC01918D228DCA
:1006B000892F90E0805C9F4F821B91098F7399274F
:1006C000089589E992E00E94550321E0892B09F4FD
:1006D00020E0822F089583ED93E00E94550321E0EE
:1006E000892B09F420E0822F089586E393E00E948D
:1006F000550321E0892B09F420E0822F0895FC01A5
:10070000A48DA80FB92FB11DA35ABF4F2C91848D72
:1007100090E001968F739927848FA689B7892C93CF
:10072000A089B1898C91837080648C93938D848D22
:10073000981306C00288F389E02D80818F7D808325
:100740000895EF92FF920F931F93CF93DF93EC01E5
:1007500081E0888F9B8D8C8D98131AC0E889F98968
:10076000808185FF15C09FB7F894EE89FF8960836B
:10077000E889F98980818370806480839FBF81E0EC
:1007800090E0DF91CF911F910F91FF90EF9008952E
:10079000F62E0B8D10E00F5F1F4F0F731127E02E09
:1007A0008C8D8E110CC00FB607FCFACFE889F98941
:1007B000808185FFF5CFCE010E947F03F1CFEB8DC5
:1007C000EC0FFD2FF11DE35AFF4FF0829FB7F89415
:1007D0000B8FEA89FB8980818062CFCFCF93DF9333
:1007E000EC01888D8823B9F0AA89BB89E889F98949
:1007F0008C9185FD03C0808186FD0DC00FB607FC7E
:10080000F7CF8C9185FFF2CF808185FFEDCFCE01B0
:100810000E947F03E9CFDF91CF91089580E090E0BF
:10082000892B29F00E94750381110E94000080E04D
:1008300090E0892B29F00E946B0381110E94000037
:1008400080E090E0892B29F00E94610381110E94D1
:10085000000080E090E0892B49F080E090E0892B57
:1008600029F00E94000081110C9400000895DC0121
:1008700052968D919C91009739F0DC01ED91FC919D
:100880000680F781E02D19940895FC01A289B389AF
:10089000109741F0ED91FC9111970084F185E02DC6
:1008A000CD01199484899589DC01ED91FC91008436
:1008B000F185E02DF6CFFC01A289B389109741F0B4
:1008C000ED91FC9111970284F385E02DCD011994EF
:1008D00084899589DC01ED91FC910284F385E02DFA
:1008E000F6CFFC01A289B389109741F0ED91FC91FC
:1008F00011970190F081E02DCD011994848995899B
:10090000DC01ED91FC910190F081E02DF6CF8F920A
:100910009F92AF92BF92DF92EF92FF920F931F933D
:10092000CF93DF9363E0D62E80E794E00E943704F4
:1009300010927D0410927C0460E880E794E00E94AD
:10094000710480E80E94E60160E180E794E00E9483
:10095000710480E10E94E60160917E0470917F0441
:1009600080918004909181040E9425024C010E9494
:10097000E6012FEF8216920691F4DA94D110D4CFCB
:1009800060E070E0CB01DF91CF911F910F91FF905C
:10099000EF90DF90BF90AF909F908F9008956091FF
:1009A0007E0470917F0480918004909181040E9464
:1009B00025027C010E94E6018FEFE816F806E9F2B5
:1009C00060917E0470917F048091800490918104F5
:1009D0000E9425028C010E94E6010F3F100769F278
:1009E00060917E0470917F048091800490918104D5
:1009F0000E942502EC010E94E601CF3FDC0709F4CA
:100A0000BCCF60917E0470917F04809180049091AE
:100A100081040E9425025C010E94E601AB20A094A3
:100A200009F4ABCF60917E0470917F0480918004C3
:100A3000909181040E9425025C018FEFA816B806F0
:100A400009F49BCF60917E0470917F0480918004B3
:100A5000909181040E9425028F3F980709F48DCF61
:100A6000BA2CAA248A299B2920917C0430917D04E8
:100A70008217930709F081CF092C000CAA08BB0844
:100A8000B82CAA2499248824B701FF0C880B990B51
:100A9000CB0177276627012E000C220B330B322F58
:100AA000212F102F0027602B712B822B932B8E016F
:100AB000DD0F220B330B602B712B822B932B6829BC
:100AC00079298A299B295FCFFC01A289B3891097D4
:100AD00041F0ED91FC9111970484F585E02DCD0155
:100AE000199484899589DC01ED91FC910484F58544
:100AF000E02DF6CF90E080E00895FB01019000200A
:100B0000E9F73197AF01461B570B0C949E028F9269
:100B10009F92AF92BF92EF92FF920F931F93CF934A
:100B2000DF93CDB7DEB7A1970FB6F894DEBF0FBE47
:100B3000CDBF7C01FA01CB0119A2223008F42AE0D2
:100B40008E010F5D1F4F822E912CB12CA12CBF0165
:100B5000A50194010E94460FF901CA016A300CF503
:100B6000605DD8016E938D01232B242B252B79F703
:100B700090E080E0109721F0BD01C7010E947D0543
:100B8000A1960FB6F894DEBF0FBECDBFDF91CF9117
:100B90001F910F91FF90EF90BF90AF909F908F901B
:100BA0000895695CDECFCF92DF92EF92FF920F93B0
:100BB0001F93CF93DF93EC016A017B016DE20E94EA
:100BC000A1038C0144275527BA014C195D096E0910
:100BD0007F092AE0CE010E948705800F911FDF91D7
:100BE000CF911F910F91FF90EF90DF90CF900895DC
:100BF0000F931F93CF93DF93EC010E947D058C012F
:100C00006AE272E0CE010E947D05800F911FDF91A4
:100C1000CF911F910F910895DF92EF92FF920F9362
:100C20001F93CF93DF93CDB7DEB713E010927D040F
:100C300010927C04CE010E967C0103E0F701D08077
:100C400092E0E90EF11C8D2D0E94E6016D2D80E7EA
:100C500094E00E947104015089F700917C04609136
:100C60007D0480E794E00E947104602F80E794E0A7
:100C70000E94710460917E0470917F0480918004D1
:100C8000909181040E9425028F3F910559F01150E7
:100C900069F680E0DF91CF911F910F91FF90EF9067
:100CA000DF90089581E0F6CF1F9284E68F931F9224
:100CB00081E08F931F9280E88F9383E08F9380E78A
:100CC00094E09F938F930E940C068DB79EB7099670
:100CD0000FB6F8949EBF0FBE8DBF08951F9284E695
:100CE0008F931F921F921F9280E88F9383E08F93C0
:100CF00080E794E09F938F930E940C068DB79EB778
:100D000009960FB6F8949EBF0FBE8DBF0895FC01E3
:100D100080819181009711F00C940C100895FB01D3
:100D200044815581FC01248135812417350778F0F1
:100D300080819181009759F0FB016081718161157B
:100D4000710529F00E94861121E0892B09F020E02D
:100D5000822F08950F931F93CF93DF93EC01888127
:100D60009981009759F02A813B812617370730F087
:100D700081E0DF91CF911F910F9108958B016F5FFB
:100D80007F4F0E949510009759F0998388831B83A9
:100D90000A832C813D81232B59F7FC011082E8CF77
:100DA00080E0E7CFEF92FF920F931F93CF93DF93F3
:100DB000EC017B018A01BA010E94AA0628813981CF
:100DC000811114C02115310519F0C9010E940C10C0
:100DD000198218821D821C821B821A82CE01DF9129
:100DE000CF911F910F91FF90EF9008951D830C8379
:100DF000B701C9010E947F11F1CFFC01118210825D
:100E00001382128215821482FB0101900020E9F7FF
:100E10003197AF01461B570B0C94D206AF92BF928D
:100E2000CF92DF92EF92FF920F931F93CF93DF93B6
:100E3000EC017B016A0183E0A82EB12C43305105FF
:100E400020F45A0193E0C92ED12C6CE272E0CE015D
:100E50000E94FD06D70114960D911C91A016B106B3
:100E600028F5C016D10608F48601D701ED91FC9152
:100E70001197E00FF11FD08010826D917C916A0D67
:100E80007B1D61157105F1F0FB0101900020E9F770
:100E90003197AF01461B570BCE010E94D206F701D6
:100EA00080819181080F191FD801DC92CE01DF915A
:100EB000CF911F910F91FF90EF90DF90CF90BF9057
:100EC000AF90089588819981009711F00E940C10CD
:100ED000198218821D821C821B821A82E0CF1F9207
:100EE0000F920FB60F9211242F933F938F939F93DE
:100EF000AF93BF938091930290919402A091950239
:100F0000B091960230918E0223E0230F2D3758F5D1
:100F10000196A11DB11D20938E02809393029093A0
:100F20009402A0939502B093960280918F029091C3
:100F30009002A0919102B09192020196A11DB11D63
:100F400080938F0290939002A0939102B0939202AB
:100F5000BF91AF919F918F913F912F910F900FBEB5
:100F60000F901F90189526E8230F0296A11DB11D22
:100F7000D2CF1F920F920FB60F9211240BB60F9281
:100F80002F933F934F935F936F937F938F939F9391
:100F9000AF93BF93EF93FF9389E992E00E947F03A1
:100FA000FF91EF91BF91AF919F918F917F916F9141
:100FB0005F914F913F912F910F900BBE0F900FBEFD
:100FC0000F901F9018951F920F920FB60F92112439
:100FD0000BB60F922F933F934F935F936F937F9333
:100FE0008F939F93AF93BF93EF93FF9389E992E021
:100FF0000E94CB02FF91EF91BF91AF919F918F9192
:101000007F916F915F914F913F912F910F900BBE08
:101010000F900FBE0F901F9018951F920F920FB652
:101020000F9211240BB60F922F933F934F935F9320
:101030006F937F938F939F93AF93BF93EF93FF93A0
:1010400083ED93E00E947F03FF91EF91BF91AF91F9
:101050009F918F917F916F915F914F913F912F91D0
:101060000F900BBE0F900FBE0F901F9018951F9200
:101070000F920FB60F9211240BB60F922F933F933E
:101080004F935F936F937F938F939F93AF93BF9390
:10109000EF93FF9383ED93E00E94CB02FF91EF91DA
:1010A000BF91AF919F918F917F916F915F914F9180
:1010B0003F912F910F900BBE0F900FBE0F901F907E
:1010C00018951F920F920FB60F9211240BB60F9224
:1010D0002F933F934F935F936F937F938F939F9340
:1010E000AF93BF93EF93FF9386E393E00E947F0358
:1010F000FF91EF91BF91AF919F918F917F916F91F0
:101100005F914F913F912F910F900BBE0F900FBEAB
:101110000F901F9018951F920F920FB60F921124E7
:101120000BB60F922F933F934F935F936F937F93E1
:101130008F939F93AF93BF93EF93FF9386E393E0D7
:101140000E94CB02FF91EF91BF91AF919F918F9140
:101150007F916F915F914F913F912F910F900BBEB7
:101160000F900FBE0F901F9018951F920F920FB601
:101170000F9211240BB60F922F933F938F939F934F
:10118000AF93BF93CF93DF93EF93FF93E0919702D9
:10119000F0919802309749F0A685B7859585868DA0
:1011A00081FF14C08C918923A1F4FF91EF91DF910D
:1011B000CF91BF91AF919F918F913F912F910F90C0
:1011C0000BBE0F900FBE0F901F9018958C91892326
:1011D00061F7A389B4899C918589809589238C9333
:1011E000868997890197F1F7208D318DC685D7853E
:1011F00088E0D9011197F1F798818150D1F780915A
:101200007B0290E001968F73992720917A0228172C
:1012100079F090917B0280937B02828D938D019770
:10122000F1F7A389B4898C919589892B8C93BDCFD3
:10123000868D8160868FF1CF0F931F93CF93DF93BD
:101240001F921F921F9281E08F931F9200E80F93CD
:1012500013E01F93C0E7D4E0DF93CF930E940C0606
:101260001F921F921F9285E08F931F920F931F93DF
:10127000DF93CF930E940C068DB79EB742960FB6B0
:10128000F8949EBF0FBE8DBFDF91CF911F910F913C
:1012900008958091820290918302A0918402B0917E
:1012A0008502B7FF10C08091820290918302A091C5
:1012B0008402B0918502181619061A061B0684F0DE
:1012C0000E945406F0CF8091820290918302A091F7
:1012D0008402B0918502B7FD03C00E946E06F3CF71
:1012E0000895E9E9F2E01382128248EE53E060E0EB
:1012F00070E044835583668377838AE092E091832C
:10130000808325ED30E03587248724ED30E0378772
:10131000268720ED30E0318B208B21ED30E0338BC0
:10132000228B22ED30E0358B248B26ED30E0378B9D
:10133000268B118E128E138E148EE3EDF3E0138242
:1013400012824483558366837783918380832DEC57
:1013500030E0358724872CEC30E03787268728EC6F
:1013600030E0318B208B29EC30E0338B228B2AEC60
:1013700030E0358B248B2EEC30E0378B268B118EB2
:10138000128E138E148EA6E3B3E013961C921E9257
:10139000129714964D935D936D937C9317971196C6
:1013A0009C938E9385EC90E01D969C938E931C9756
:1013B00084EC90E01F969C938E931E9780EC90E0B7
:1013C00051969C938E93509781EC90E053969C930A
:1013D0008E93529782EC90E055969C938E935497FF
:1013E00086EC90E057969C938E93569759961C9254
:1013F00059975A961C925A975B961C925B975C96EB
:101400001C92A0E7B4E013961C921E9212971496B9
:101410004D935D936D937C9317978CE192E01196B9
:101420009C938E9340E157E260E070E01E964D93EE
:101430005D936D937C9351975396FC93EE935297E3
:1014400055961C921E9254970895CF93DF93CDB773
:10145000DEB762970FB6F894DEBF0FBECDBF7894AB
:1014600084B5826084BD84B5816084BD85B58260A9
:1014700085BD85B5816085BD80916E00816080935A
:101480006E001092810080918100826080938100C3
:1014900080918100816080938100809180008160D3
:1014A000809380008091B10084608093B10080912E
:1014B000B00081608093B000809191008260809341
:1014C00091008091910081608093910080919000C3
:1014D0008160809390008091A10082608093A10040
:1014E0008091A10081608093A1008091A000816023
:1014F0008093A000809121018260809321018091DE
:10150000210181608093210180912001816080937D
:10151000200180917A00846080937A0080917A0023
:10152000826080937A0080917A00816080937A0053
:1015300080917A00806880937A001092C10040E820
:1015400055E260E070E086E393E00E94670140E8C6
:1015500055E260E070E089E992E00E9467018091C5
:10156000820490918304009709F44DC040E855E24D
:1015700060E070E00E9467018DE00E94C7018CE08E
:101580000E94C7018BE00E94C7018AE00E94C70148
:101590002DE6222E21E0322E8FB7F894C0909302D0
:1015A000D0909402E0909502F09096028FBFF101E6
:1015B0008491EDE2F2E02491E7EEF1E09491992339
:1015C00009F4F1C0882309F4E0C08150823108F0A9
:1015D000DCC0E82FF0E08827EF50F54F8F4F0C94D8
:1015E000680F290C2D0CC00B210C250CC50B300CE1
:1015F000360C3A0C400C440C480C4E0C520CC50BEB
:10160000560C5C0C600CE0918404F0918504138E00
:10161000128E118E108E178A168A8DE991E0958FA1
:10162000848F848596EF980F943048F02EEC280F25
:10163000243028F022EC280F283008F055C02DEB7C
:1016400030E0378B268B2BE931E0318F208F2CE275
:1016500031E0338F228F943050F02EEC280F24305D
:1016600030F022EC280FB0E0A0E0283010F4A8E61B
:10167000B0E02C91943028F032EC380F383008F478
:1016800062C031E0232B943048F09EEC980F9430E8
:1016900028F08E53B0E0A0E0883010F4A8E6B0E067
:1016A0002C93248536EF320F343008F44EC08EEC84
:1016B000820F843008F449C082EC820F883008F031
:1016C00047C08DE690E0948B838B343008F043C0A4
:1016D0002650330B81E001C0880F2A95EAF7858BED
:1016E000848D958D0197F1F7828D938D892B09F467
:1016F00043CF4091970250919802E417F50709F4FF
:101700003BCF4115510569F0DA0153962D913C917B
:10171000D9019C91DA0155968C9180958923D90144
:101720008C93868D8E7F868F10927B0210927A0228
:10173000F0939802E0939702A389B4898C919589DC
:10174000892B8C9319CF34E09DCF8BE690E0BBCFF3
:1017500090E080E0B8CF88E0223309F4C0CF84E085
:10176000233309F4BCCF82E0243309F4B8CF82ECF0
:10177000820F883018F42E53330BACCF81E0AFCFFB
:10178000809180008F7780938000E92FF0E0EE0F4A
:10179000FF1FEA55FE4FA591B4918FB7F8949C9125
:1017A000292B2C938FBF6CE272E0CE010D960E9424
:1017B000FD0680918A0290918B02A0918C02B091DB
:1017C0008D02A7019601281B390B4A0B5B0BDA012E
:1017D000C901803B9440A105B10508F4B4C06DE295
:1017E00072E086E393E00E94F80589E992E00E94A6
:1017F0005503892B09F480C06CE272E0CE0101969A
:101800000E94FD060E94070397FD5EC08F83188625
:101810000D811E810F5F1F4FB801CE0101960E94FE
:10182000AA06882379F329813A818D819E81BE01A0
:10183000695F7F4F820F931F0E947F111E830D836C
:10184000E1CF809180008F7D9ECF80918000877F47
:101850009ACF84B58F7784BD98CF84B58F7DFBCF29
:101860008091B0008F778093B0008FCF8091B000CF
:101870008F7DF9CF809190008F778093900085CFF6
:10188000809190008F7DF9CF80919000877FF5CF78
:101890008091A0008F778093A00077CF8091A000E7
:1018A0008F7DF9CF8091A000877FF5CF80912001B7
:1018B0008F778093200169CF809120018F7DF9CFB0
:1018C00080912001877FF5CF0E94870489819A81CA
:1018D00098878F838B819C819A8789878D819E8150
:1018E0009C878B871A8219821C821B821E821D8212
:1018F000CE0101960E9487068D859E85009709F48A
:10190000F7C06F8178856115710509F4EFC04F85C7
:1019100058892B853C854217530708F4E7C00E947D
:101920007F118B859C859A8B898B1C861B86CE01AB
:1019300007960E948706C0928A02D0928B02E0929C
:101940008C02F0928D028091860290918702A09184
:101950008802B0918902A7019601281B390B4A0B16
:101960005B0BDA01C901803B9440A105B10508F485
:1019700050C064E372E086E393E00E94F8051886A5
:101980001F821A8619861C861B866D857E856115C9
:10199000710531F049895A89CE0107960E94D20615
:1019A0006BE372E0CE0101960E94FD06BE016F5FFF
:1019B0007F4FCE0107960E948F06182FCE01019609
:1019C0000E948706112309F4A8C04B855C85BE01DF
:1019D000695F7F4FCE0101960E940E0789819A812F
:1019E000009709F496C00E940A0F709381026093D9
:1019F0008002CE0101960E948706CE0107960E94C2
:101A00008706C0928602D0928702E0928802F09206
:101A1000890244EFC41641E0D406E104F10408F45D
:101A20005EC06FE672E086E393E00E94F8050E94D4
:101A30008704AB01BC014093820250938302609300
:101A400084027093850277FFD9C189E992E00E94F0
:101A5000D30540918202509183026091840270917B
:101A6000850277FFD1C186E393E00E94D30566E744
:101A700072E089E992E00E94F80568E772E089E97E
:101A800092E00E947D050E9400024B015C018AEFFA
:101A9000482E512C612C712C0E9400026819790982
:101AA0008A099B09683E734081059105A8F351E0BE
:101AB000451A51086108710888EE880E83E0981E67
:101AC000A11CB11C411451046104710429F7C09296
:101AD0008602D0928702E0928802F0928902CE01BB
:101AE0000D960E9487060E940E0456CD0E940C108F
:101AF0008F8198859E878D8789859A85988B8F871A
:101B00008B859C859A8B898B18861F821A861986ED
:101B10000CCF60E070E0CB0168CF6FE372E0CE01E4
:101B200001960E94FD06BE016F5F7F4FCE010796B2
:101B30000E948F06182FCE0101960E94870611235E
:101B400051F04B855C85BE01695F7F4FCE010196E8
:101B50000E940E074ECF63E472E0CE0101960E9410
:101B6000FD06BE016F5F7F4FCE0107960E948F0674
:101B7000182FCE0101960E9487061111E2CF67E46B
:101B800072E0CE0101960E94FD06BE016F5F7F4F9D
:101B9000CE0107960E948F06182FCE0101960E9453
:101BA000870611112ACF6BE472E0CE0101960E94E4
:101BB000FD06BE016F5F7F4FCE0107960E948F0624
:101BC000182FCE0101960E948706112329F010924A
:101BD0007F0210927E0211CF6FE472E0CE01019677
:101BE0000E94FD06BE016F5F7F4FCE0107960E94E7
:101BF0008F06182FCE0101960E948706112349F007
:101C00001092820210928302109284021092850236
:101C1000F4CE63E572E0CE0101960E94FD06BE019E
:101C20006F5F7F4FCE0107960E948F06182FCE015F
:101C300001960E948706112349F0809182029091BB
:101C4000830290937F0280937E02D7CE67E572E095
:101C5000CE0101960E94FD06BE016F5F7F4FCE014F
:101C600007960E948F06182FCE0101960E948706C4
:101C7000112319F00E946E06C0CE6BE572E0CE0112
:101C800001960E94FD06BE016F5F7F4FCE01079651
:101C90000E948F06182FCE0101960E9487061123FD
:101CA00019F00E945406A9CE6FE572E0CE010196AC
:101CB0000E94FD06BE016F5F7F4FCE0107960E9416
:101CC0008F06182FCE0101960E948706112319F066
:101CD0000E941C0992CE63E672E0CE0101960E943A
:101CE000FD06BE016F5F7F4FCE0107960E948F06F3
:101CF000182FCE0101960E948706112309F443C0D4
:101D00008091820290918302A0918402B091850219
:101D1000892B8A2B8B2B11F00E94490920917C0280
:101D200030917D0280918002909181028217930709
:101D30000CF463CE80917E0290917F02092E000CFC
:101D4000AA0BBB0B409182025091830260918402E6
:101D500070918502481759076A077B0764F40E944F
:101D60006E0680917C0290917D02019690937D0297
:101D700080937C02D3CF84179507A607B7078CF70B
:101D80000E945406EECF67E672E0CE0101960E94F3
:101D9000FD06BE016F5F7F4FCE0107960E948F0642
:101DA000182FCE0101960E948706112369F00E9428
:101DB0001C090E94490910927D0210927C02109227
:101DC00081021092800219CE6BE672E0CE0101967C
:101DD0000E94FD06BE016F5F7F4FCE0107960E94F5
:101DE0008F06182FCE0101960E948706112309F451
:101DF00004CE0E941C090E944909FFCD2AE089E90E
:101E000092E00E94870525CE2AE086E393E00E94B7
:101E100087052DCE1F93FC0199278827BC01E894E4
:101E200011911032E9F3193010F01E30C8F31B3253
:101E300051F01D3249F4689406C00E94310F610FC1
:101E4000711D811D911D119110531A30B0F33EF494
:101E500090958095709561957F4F8F4F9F4F1F9103
:101E60000895592F482F372F262F660F771F881F69
:101E7000991F660F771F881F991F620F731F841F9A
:101E8000951F660F771F881F991F0895A1E21A2ECC
:101E9000AA1BBB1BFD010DC0AA1FBB1FEE1FFF1F0E
:101EA000A217B307E407F50720F0A21BB30BE40B5E
:101EB000F50B661F771F881F991F1A9469F76095A5
:101EC0007095809590959B01AC01BD01CF0108955F
:101ED000EE0FFF1F881F8BBF0790F691E02D19941E
:101EE0000F931F93CF93DF938230910510F482E01C
:101EF00090E0E0918804F091890430E020E0B0E0C7
:101F0000A0E0309799F42115310509F44AC0281B47
:101F1000390B24303105D8F58A819B816115710513
:101F200089F1FB0193838283FE0111C040815181BD
:101F30000281138148175907E0F04817590799F4AF
:101F4000109761F012960C93129713961C93329689
:101F5000CF01DF91CF911F910F91089500938804D5
:101F600010938904F4CF2115310551F0421753071E
:101F700038F0A901DB019A01BD01DF01F801C1CFF1
:101F8000EF01F9CF9093890480938804CDCFFE01AF
:101F9000E20FF31F819391932250310939832883F3
:101FA000D7CF2091860430918704232B41F42091D0
:101FB000020230910302309387042093860420911B
:101FC0000002309101022115310541F42DB73EB7D1
:101FD0004091040250910502241B350BE0918604C8
:101FE000F0918704E217F307A0F42E1B3F0B28178C
:101FF000390778F0AC014E5F5F4F2417350748F082
:102000004E0F5F1F509387044093860481939193F2
:102010009FCFF0E0E0E09CCFCF93DF930097E9F013
:10202000FC01329713821282A0918804B091890436
:10203000ED0130E020E01097A1F420813181820F82
:10204000931F20918604309187042817390709F0DF
:1020500061C0F0938704E0938604DF91CF910895E7
:10206000EA01CE17DF07E8F54A815B819E01411541
:102070005105B1F7E901FB83EA8349915991C40FF6
:10208000D51FEC17FD0761F4808191810296840FC2
:10209000951FE90199838883828193819B838A8339
:1020A000F0E0E0E012968D919C9113970097B9F5BE
:1020B0002D913C911197CD010296820F931F209193
:1020C0008604309187042817390739F6309751F57F
:1020D0001092890410928804B0938704A093860418
:1020E000BCCFD383C28340815181840F951FC81711
:1020F000D90761F44E5F5F4F88819981480F591F5E
:10210000518340838A819B8193838283211531058A
:1021100009F0B0CFF0938904E09388049ECFFD01CD
:10212000DC01C0CF13821282D7CF4F925F926F92A1
:102130007F928F929F92AF92BF92CF92DF92EF9257
:10214000FF920F931F93CF93DF938C01009799F425
:10215000CB01DF91CF911F910F91FF90EF90DF9016
:10216000CF90BF90AF909F908F907F906F905F9037
:102170004F900C94700FFC01E60FF71F9C0122504A
:102180003109E217F30708F4AEC0D901CD91DC9113
:102190001197C617D70720F1C530D10578F0CE01C9
:1021A00004978617970750F0C61BD70B2297C19349
:1021B000D1936D937C93CF010E940C10C801DF91E5
:1021C000CF911F910F91FF90EF90DF90CF90BF9034
:1021D000AF909F908F907F906F905F904F900895F9
:1021E0005B01AC1ABD0A4C018C0E9D1EA0918804A7
:1021F000B0918904512C412CF12CE12C109731F530
:1022000080918604909187048815990509F05CC037
:102210004616570608F058C08091000290910102BE
:10222000009741F48DB79EB740910402509105028A
:10223000841B950BE817F90708F055C0F093870445
:10224000E0938604F90171836083B8CF8D919C91EE
:10225000119712966C90129713967C901397A8156D
:10226000B90559F56C0142E0C40ED11CCA14DB0457
:1022700020F1AC014A195B09DA011296159780F03A
:102280006282738251834083D9016D937C93E11400
:10229000F10471F0D7011396FC93EE9312978ECF51
:1022A00022968C0F9D1FF90191838083F301EFCF5C
:1022B000F0938904E093880481CF4816590608F406
:1022C0002C017D01D3019ACFCB010E94700F7C01BC
:1022D000009749F0AE01B8010E947611C8010E9432
:1022E0000C1087016BCF10E000E068CFFB01DC0130
:1022F00002C001900D9241505040D8F70895FB0163
:10230000DC0101900D920020E1F70895FB01DC0152
:102310004150504030F08D910190801919F4002007
:0C232000B9F7881B990B0895F894FFCFC3
:10232C0000008A04800000000000A1039E02E40269
:10233C00EE035503F30247030000000071049E02F4
:10234C007A05370445045B0464050D0A004576657F
:10235C006E7431004576656E743200637963006F7C
:10236C00646C0063646C00636C6C0072736C007260
:10237C007368006F706C006677640072657600623B
:10238C00726B007374610072737400706175004538
:0A239C0076656E7433002E007C009D
:00000001FF
