:100000000C9434010C9465010C9465010C94650109
:100010000C9465010C9465010C9465010C946501C8
:100020000C9465010C947B080C947B080C947B0861
:100030000C9465010C9465010C9465010C946501A8
:100040000C9465010C9465010C9465010C94650198
:100050000C9465010C9465010C9465010C943507B2
:100060000C9465010C9451080C9427080C946501BC
:100070000C9465010C9465010C9465010C94650168
:100080000C9465010C9465010C9465010C94650158
:100090000C94FD070C94D3070C9465010C94650136
:1000A0000C9465010C9465010C9465010C94650138
:1000B0000C9465010C9465010C9465010C94650128
:1000C0000C9465010C9465010C9465010C94A907CE
:1000D0000C947F070C9465010C9465010C946501E8
:1000E0000C9465010C94ED030C94F2020C94E60B55
:1000F0000C94F40B0C9479050C9437090C945A0465
:100100000C9454030C94FA0B0C94E20B0C947004B2
:100110000C94A0030C9463050C94DE0B0C94C30B9D
:100120000C94FE0B0C9436040C94D40B0C94D80B4A
:100130000C94CB0B0C94EC0B0C94C70B0C94840B11
:100140000C94CE0B0C94BF0B0C949D020C944603A4
:100150000C94F00B0C94E3020C947F0B0C9444046D
:1001600000000A0B02090C0D0E0807030401000031
:10017000000000000000000000000000000000007F
:10018000000000000000000000000000121110003C
:10019000000000000000000000000000000000005F
:1001A00000000000000000002200250028002B00B5
:1001B0002E003100340002010000050108010B018E
:1001C00000002100240027002A002D003000330009
:1001D00001010000040107010A01050505050705E5
:1001E00008080808020202020A0A080804040404B3
:1001F00001010101010101010303030303030303DF
:10020000040707070C0C0C0C0C0C0C0C020202026D
:1002100006060606060606060B0B0B0B0B0B0B0B56
:100220000102102020080810204010204080020108
:1002300002010804020101020408102040808040ED
:1002400020100804020180040201804020100804EC
:10025000020108040201010204081020408001028A
:10026000040810204080370911241FBECFEFD1E2CF
:10027000DEBFCDBF00E00CBF24E0A6E6B2E001C0C7
:100280001D92AE36B207E1F712E0A0E0B2E0ECEC6E
:10029000F1E200E00BBF02C007900D92A636B10755
:1002A000D9F711E0C4E3D1E000E006C021970109CD
:1002B000802FFE010E94B80EC333D10780E00807EB
:1002C000A9F70E94EB090C94E4100C940000CF9263
:1002D000DF92EF92FF92CF93DF93EC016A017B01F3
:1002E000E889F98982E08083C11481EED806E104AF
:1002F000F104A1F060E079E08DE390E0A7019601C0
:100300000E94960E21503109410951095695479591
:1003100037952795211580E1380798F0E889F98904
:10032000108260E874E88EE190E0A70196010E94D7
:10033000960E215031094109510956954795379537
:100340002795EC85FD853083EE85FF852083188E0B
:10035000EC89FD8986E08083EA89FB898081806160
:100360008083EA89FB89808188608083EA89FB89B0
:10037000808180688083EA89FB8980818F7D80838A
:10038000DF91CF91FF90EF90DF90CF90089590E0B4
:10039000FC01E05EFD4F249186529E4FFC0184914A
:1003A000882399F090E0880F991FFC01E054FE4FDC
:1003B000A591B491FC01EA55FE4F859194918FB7B8
:1003C000F894EC91E22BEC938FBF08952091600498
:1003D00030916104A9015827CA0128E030E0AC013E
:1003E000880F991F57FF04C051E2852750E19527D8
:1003F00021503109A1F7909361048093600408951E
:100400003FB7F8948091730290917402A0917502A5
:10041000B091760226B5A89B05C02F3F19F0019632
:10042000A11DB11D3FBFBA2FA92F982F8827BC014E
:10043000CD01620F711D811D911D42E0660F771F76
:10044000881F991F4A95D1F708958F929F92AF9276
:10045000BF92CF92DF92EF92FF926B017C0180916D
:10046000660490916704892B91F10E9400024B0170
:100470005C018091660490916704DC01ED91FC9130
:100480000084F185E02D1995892B71F40E940002FA
:10049000681979098A099B096C157D058E059F05E8
:1004A00040F38FEF9FEF40C0809166049091670406
:1004B000DC01ED91FC910284F385E02DFF90EF903B
:1004C000DF90CF90BF90AF909F908F901994209124
:1004D00068043091690480917B0290917C02281716
:1004E000390711F50E9400024B015C0180916804FC
:1004F00090916904DC01ED91FC910084F185E02D7F
:100500001995892B61F40E940002681979098A09FA
:100510009B096C157D058E059F0540F3C2CF809128
:10052000680490916904C4CFFF90EF90DF90CF9062
:10053000BF90AF909F908F900895AF92BF92CF924F
:10054000DF92EF92FF920F931F93CF93DF936C0193
:100550007B018B01040F151FEB015E01AE18BF0874
:10056000C017D10759F06991D601ED91FC91019026
:10057000F081E02DC6011995892B79F7C501DF912E
:10058000CF911F910F91FF90EF90DF90CF90BF9090
:10059000AF900895FC01A089B1898C91A689B78993
:1005A00082FD0FC09C91818D8F5F8F73228D82178A
:1005B00049F0A18DAE0FBF2FB11D5D969C93818F29
:1005C00008958C910895FC01538D448D252F30E0C2
:1005D000842F90E0821B930B541710F0CF96089550
:1005E00001970895FC01918D828D981761F0A28D7D
:1005F000AE0FBF2FB11D5D968C91928D9F5F9F7343
:10060000928F90E008958FEF9FEF08952FB7F894A1
:100610008091770290917802A0917902B0917A024C
:100620002FBF8093850290938602A0938702B09398
:1006300088028DE792E00E94F20297FF26C02FB752
:10064000F8948091770290917802A0917902B0910C
:100650007A022FBF409185025091860260918702F5
:1006600070918802841B950BA60BB70B40918102F9
:1006700050918202609183027091840284179507E1
:10068000A607B707B0F28FEF9FEF0895FC01918D99
:10069000828D981731F0828DE80FF11D858D90E0E5
:1006A00008958FEF9FEF0895FC01918D228D892F82
:1006B00090E0805C9F4F821B91098F73992708956A
:1006C0008DE792E00E94540321E0892B09F420E099
:1006D000822F089587EB93E00E94540321E0892B39
:1006E00009F420E0822F08958AE193E00E945403E8
:1006F00021E0892B09F420E0822F0895FC01A48DCC
:10070000A80FB92FB11DA35ABF4F2C91848D90E033
:1007100001968F739927848FA689B7892C93A08916
:10072000B1898C91837080648C93938D848D9813A0
:1007300006C00288F389E02D80818F7D8083089533
:10074000EF92FF920F931F93CF93DF93EC0181E021
:10075000888F9B8D8C8D98131AC0E889F9898081C8
:1007600085FF15C09FB7F894EE89FF896083E889FB
:10077000F98980818370806480839FBF81E090E0ED
:10078000DF91CF911F910F91FF90EF900895F62E7A
:100790000B8D10E00F5F1F4F0F731127E02E8C8D14
:1007A0008E110CC00FB607FCFACFE889F989808159
:1007B00085FFF5CFCE010E947E03F1CFEB8DEC0FCC
:1007C000FD2FF11DE35AFF4FF0829FB7F8940B8F76
:1007D000EA89FB8980818062CFCFCF93DF93EC01E0
:1007E000888D8823B9F0AA89BB89E889F9898C9119
:1007F00085FD03C0808186FD0DC00FB607FCF7CFD5
:100800008C9185FFF2CF808185FFEDCFCE010E94D4
:100810007E03E9CFDF91CF91089580E090E0892BAE
:1008200029F00E94740381110E94000080E090E092
:10083000892B29F00E946A0381110E94000080E048
:1008400090E0892B29F00E94600381110E94000032
:1008500080E090E0892B49F080E090E0892B29F03E
:100860000E94000081110C9400000895DC01529652
:100870008D919C91009739F0DC01ED91FC910680FF
:10088000F781E02D19940895FC01A289B38910978E
:1008900041F0ED91FC9111970084F185E02DCD019F
:1008A000199484899589DC01ED91FC910084F1858E
:1008B000E02DF6CFFC01A289B389109741F0ED91AC
:1008C000FC9111970284F385E02DCD011994848960
:1008D0009589DC01ED91FC910284F385E02DF6CF42
:1008E000FC01A289B389109741F0ED91FC91119719
:1008F0000190F081E02DCD01199484899589DC0166
:10090000ED91FC910190F081E02DF6CF8F929F92B6
:10091000AF92BF92DF92EF92FF920F931F93CF930C
:10092000DF9363E0D62E84E594E00E9436041092B3
:1009300061041092600460E884E594E00E94700411
:1009400080E80E94E60160E184E594E00E94700482
:1009500080E10E94E60160916204709163048091DD
:100960006404909165040E9425024C010E94E601F6
:100970002FEF8216920691F4DA94D110D4CF60E072
:1009800070E0CB01DF91CF911F910F91FF90EF901D
:10099000DF90BF90AF909F908F9008956091620418
:1009A0007091630480916404909165040E94250213
:1009B0007C010E94E6018FEFE816F806E9F26091EB
:1009C00062047091630480916404909165040E94B4
:1009D00025028C010E94E6010F3F100769F2609129
:1009E00062047091630480916404909165040E9494
:1009F0002502EC010E94E601CF3FDC0709F4BCCFE1
:100A00006091620470916304809164049091650424
:100A10000E9425025C010E94E601AB20A09409F42B
:100A2000ABCF6091620470916304809164049091F3
:100A300065040E9425025C018FEFA816B80609F430
:100A40009BCF6091620470916304809164049091E3
:100A500065040E9425028F3F980709F48DCFBA2CB8
:100A6000AA248A299B29209160043091610482176D
:100A7000930709F081CF092C000CAA08BB08B82CF9
:100A8000AA2499248824B701FF0C880B990BCB0169
:100A900077276627012E000C220B330B322F212FD4
:100AA000102F0027602B712B822B932B8E01DD0FD3
:100AB000220B330B602B712B822B932B6829792906
:100AC0008A299B295FCFFC01A289B389109741F045
:100AD000ED91FC9111970484F585E02DCD011994D9
:100AE00084899589DC01ED91FC910484F585E02DE4
:100AF000F6CF90E080E00895FB0101900020E9F737
:100B00003197AF01461B570B0C949D028F929F9219
:100B1000AF92BF92EF92FF920F931F93CF93DF9309
:100B2000CDB7DEB7A1970FB6F894DEBF0FBECDBF2D
:100B30007C01FA01CB0119A2223008F42AE08E01CF
:100B40000F5D1F4F822E912CB12CA12CBF01A5014E
:100B500094010E94960EF901CA016A300CF5605D9D
:100B6000D8016E938D01232B242B252B79F790E050
:100B700080E0109721F0BD01C7010E947C05A1967D
:100B80000FB6F894DEBF0FBECDBFDF91CF911F919E
:100B90000F91FF90EF90BF90AF909F908F9008952E
:100BA000695CDECFDF92EF92FF920F931F93CF939A
:100BB000DF93CDB7DEB713E01092610410926004AA
:100BC000CE010E967C0103E0F701D08092E0E90EA1
:100BD000F11C8D2D0E94E6016D2D84E594E00E94AC
:100BE0007004015089F7009160046091610484E50C
:100BF00094E00E947004602F84E594E00E947004E9
:100C00006091620470916304809164049091650422
:100C10000E9425028F3F910559F0115069F680E03E
:100C2000DF91CF911F910F91FF90EF90DF9008958A
:100C300081E0F6CF1F9284E68F931F9281E08F931D
:100C40001F9280E88F9383E08F9384E594E09F93D5
:100C50008F930E94D2058DB79EB709960FB6F89470
:100C60009EBF0FBE8DBF08951F9284E68F931F9283
:100C70001F921F9280E88F9383E08F9384E594E026
:100C80009F938F930E94D2058DB79EB709960FB69A
:100C9000F8949EBF0FBE8DBF0895FC0180819181A5
:100CA000009711F00C945C0F0895FB01448155816D
:100CB000FC01248135812417350778F080819181EA
:100CC000009759F0FB01608171816115710529F070
:100CD0000E94D61021E0892B09F020E0822F089590
:100CE0000F931F93CF93DF93EC0188819981009735
:100CF00059F02A813B812617370730F081E0DF91D8
:100D0000CF911F910F9108958B016F5F7F4F0E94CC
:100D1000E50F009759F0998388831B830A832C8100
:100D20003D81232B59F7FC011082E8CF80E0E7CF0B
:100D3000EF92FF920F931F93CF93DF93EC017B0110
:100D40008A01BA010E94700628813981811114C07C
:100D50002115310519F0C9010E945C0F1982188212
:100D60001D821C821B821A82CE01DF91CF911F91BE
:100D70000F91FF90EF9008951D830C83B701C90177
:100D80000E94CF10F1CFFC011182108213821282D7
:100D900015821482FB0101900020E9F73197AF0121
:100DA000461B570B0C949806AF92BF92CF92DF92DE
:100DB000EF92FF920F931F93CF93DF93EC017B0190
:100DC0006A0183E0A82EB12C4330510520F45A016A
:100DD00093E0C92ED12C6CE272E0CE010E94C306D2
:100DE000D70114960D911C91A016B10628F5C016D6
:100DF000D10608F48601D701ED91FC911197E00F1F
:100E0000F11FD08010826D917C916A0D7B1D611560
:100E10007105F1F0FB0101900020E9F73197AF0176
:100E2000461B570BCE010E949806F70180819181E5
:100E3000080F191FD801DC92CE01DF91CF911F91CD
:100E40000F91FF90EF90DF90CF90BF90AF900895FB
:100E500088819981009711F00E945C0F1982188295
:100E60001D821C821B821A82E0CF1F920F920FB646
:100E70000F9211242F933F938F939F93AF93BF9320
:100E80008091770290917802A0917902B0917A02D4
:100E90003091720223E0230F2D3758F50196A11DE2
:100EA000B11D209372028093770290937802A093F1
:100EB0007902B0937A028091730290917402A091AA
:100EC0007502B09176020196A11DB11D8093730247
:100ED00090937402A0937502B0937602BF91AF9184
:100EE0009F918F913F912F910F900FBE0F901F9068
:100EF000189526E8230F0296A11DB11DD2CF1F928F
:100F00000F920FB60F9211240BB60F922F933F93AF
:100F10004F935F936F937F938F939F93AF93BF9301
:100F2000EF93FF938DE792E00E947E03FF91EF9194
:100F3000BF91AF919F918F917F916F915F914F91F1
:100F40003F912F910F900BBE0F900FBE0F901F90EF
:100F500018951F920F920FB60F9211240BB60F9295
:100F60002F933F934F935F936F937F938F939F93B1
:100F7000AF93BF93EF93FF938DE792E00E94CA0275
:100F8000FF91EF91BF91AF919F918F917F916F9161
:100F90005F914F913F912F910F900BBE0F900FBE1D
:100FA0000F901F9018951F920F920FB60F92112459
:100FB0000BB60F922F933F934F935F936F937F9353
:100FC0008F939F93AF93BF93EF93FF9387EB93E040
:100FD0000E947E03FF91EF91BF91AF919F918F91FE
:100FE0007F916F915F914F913F912F910F900BBE29
:100FF0000F900FBE0F901F9018951F920F920FB673
:101000000F9211240BB60F922F933F934F935F9340
:101010006F937F938F939F93AF93BF93EF93FF93C0
:1010200087EB93E00E94CA02FF91EF91BF91AF91CD
:101030009F918F917F916F915F914F913F912F91F0
:101040000F900BBE0F900FBE0F901F9018951F9220
:101050000F920FB60F9211240BB60F922F933F935E
:101060004F935F936F937F938F939F93AF93BF93B0
:10107000EF93FF938AE193E00E947E03FF91EF914B
:10108000BF91AF919F918F917F916F915F914F91A0
:101090003F912F910F900BBE0F900FBE0F901F909E
:1010A00018951F920F920FB60F9211240BB60F9244
:1010B0002F933F934F935F936F937F938F939F9360
:1010C000AF93BF93EF93FF938AE193E00E94CA022C
:1010D000FF91EF91BF91AF919F918F917F916F9110
:1010E0005F914F913F912F910F900BBE0F900FBECC
:1010F0000F901F9018951F920F920FB60F92112408
:101100000BB60F922F933F938F939F93AF93BF9301
:10111000CF93DF93EF93FF93E0917B02F0917C02FA
:10112000309749F0A685B7859585868D81FF14C0D7
:101130008C918923A1F4FF91EF91DF91CF91BF9121
:10114000AF919F918F913F912F910F900BBE0F9078
:101150000FBE0F901F9018958C91892361F7A3897A
:10116000B4899C918589809589238C9386899789F8
:101170000197F1F7208D318DC685D78588E0D9019B
:101180001197F1F798818150D1F78091670290E033
:1011900001968F73992720916602281779F0909114
:1011A000670280936702828D938D0197F1F7A3897F
:1011B000B4898C919589892B8C93BDCF868D816064
:1011C000868FF1CF0F931F93CF93DF931F921F92C0
:1011D0001F9281E08F931F9200E80F9313E01F93FB
:1011E000C4E5D4E0DF93CF930E94D2051F921F92F3
:1011F0001F9285E08F931F920F931F93DF93CF93DE
:101200000E94D2058DB79EB742960FB6F8949EBF46
:101210000FBE8DBFDF91CF911F910F9108958091E7
:101220006C0290916D02A0916E02B0916F02B7FFB7
:1012300010C080916C0290916D02A0916E02B091ED
:101240006F02181619061A061B0684F00E941A0669
:10125000F0CF80916C0290916D02A0916E02B091DE
:101260006F02B7FD03C00E943406F3CF0895EDE787
:10127000F2E01382128248EE53E060E070E04483B3
:101280005583668377838AE092E09183808325ED9E
:1012900030E03587248724ED30E03787268720ED3E
:1012A00030E0318B208B21ED30E0338B228B22ED2F
:1012B00030E0358B248B26ED30E0378B268B118E7A
:1012C000128E138E148EE7EBF3E0138212824483A6
:1012D000558366837783918380832DEC30E0358757
:1012E00024872CEC30E03787268728EC30E0318BE0
:1012F000208B29EC30E0338B228B2AEC30E0358BCD
:10130000248B2EEC30E0378B268B118E128E138EB1
:10131000148EAAE1B3E013961C921E9212971496B3
:101320004D935D936D937C93179711969C938E9339
:1013300085EC90E01D969C938E931C9784EC90E036
:101340001F969C938E931E9780EC90E051969C93F1
:101350008E93509781EC90E053969C938E93529786
:1013600082EC90E055969C938E93549786EC90E097
:1013700057969C938E93569759961C9259975A96C6
:101380001C925A975B961C925B975C961C92A4E504
:10139000B4E013961C921E92129714964D935D938F
:1013A0006D937C9317978CE192E011969C938E93AA
:1013B00040E157E260E070E01E964D935D936D93BF
:1013C0007C9351975396FC93EE93529755961C92AB
:1013D0001E9254970895CF93DF93CDB7DEB76297EF
:1013E0000FB6F894DEBF0FBECDBF789484B582608F
:1013F00084BD84B5816084BD85B5826085BD85B5B9
:10140000816085BD80916E00816080936E00109236
:1014100081008091810082608093810080918100B1
:101420008160809381008091800081608093800042
:101430008091B10084608093B1008091B0008160A0
:101440008093B000809191008260809391008091A0
:1014500091008160809391008091900081608093E1
:1014600090008091A10082608093A1008091A100F2
:1014700081608093A1008091A00081608093A00092
:1014800080912101826080932101809121018160FE
:1014900080932101809120018160809320018091BF
:1014A0007A00846080937A0080917A0082608093D1
:1014B0007A0080917A00816080937A0080917A002E
:1014C000806880937A001092C10040E855E260E0A5
:1014D00070E08AE193E00E94670140E855E260E035
:1014E00070E08DE792E00E94670180916604909120
:1014F0006704009709F446C040E855E260E070E0F8
:101500000E9467018DE00E94C7018CE00E94C70124
:101510008BE00E94C7018AE00E94C7010DE611E03E
:101520002DE2E22E22E0F22E37EEC32E31E0D32E52
:10153000F8018491F7012491F6019491992309F41B
:10154000F1C0882309F4E0C08150823108F0DCC08A
:10155000E82FF0E08827E055F54F8F4F0C94B80E38
:10156000C70BCB0B7F0BBF0BC30B840BCE0BD40B6A
:10157000D80BDE0BE20BE60BEC0BF00B840BF40B41
:10158000FA0BFE0BE0916804F0916904138E128E41
:10159000118E108E178A168A8DE991E0958F848FAF
:1015A000848596EF980F943048F02EEC280F243065
:1015B00028F022EC280F283008F055C02DEB30E041
:1015C000378B268B2BE931E0318F208F2CE231E0F5
:1015D000338F228F943050F02EEC280F243030F0CF
:1015E00022EC280FB0E0A0E0283010F4A8E6B0E02C
:1015F0002C91943028F032EC380F383008F462C067
:1016000031E0232B943048F09EEC980F943028F072
:101610008E53B0E0A0E0883010F4A8E6B0E02C9340
:10162000248536EF320F343008F44EC08EEC820F32
:10163000843008F449C082EC820F883008F447C037
:1016400090E080E0948B838B343008F043C02650C8
:10165000330B81E001C0880F2A95EAF7858B848DD2
:10166000958D0197F1F7828D938D892B09F44ACFDF
:1016700040917B0250917C02E417F50709F442CFB8
:101680004115510569F0DA0153962D913C91D9012C
:101690009C91DA0155968C9180958923D9018C9380
:1016A000868D8E7F868F1092670210926602F0936D
:1016B0007C02E0937B02A389B4898C919589892B64
:1016C0008C9320CF34E09DCF8BE690E0BBCF8DE6AE
:1016D00090E0B8CF88E0223309F4C0CF84E0233310
:1016E00009F4BCCF82E0243309F4B8CF82EC820F36
:1016F000883018F42E53330BACCF81E0AFCF8091FC
:1017000080008F7780938000E92FF0E0EE0FFF1FBD
:10171000EA55FE4FA591B4918FB7F8949C91292B6F
:101720002C938FBF8DE792E00E945403892B09F41C
:101730008FC06CE272E0CE0101960E94C3060E9447
:10174000060397FD5FC08F831886AD80BE80FFEFD4
:10175000AF1ABF0AB501CE0101960E947006882318
:1017600071F329813A818D819E81BE01695F7F4F2E
:10177000820F931F0E94CF10BE82AD82E0CF809176
:1017800080008F7DBFCF80918000877FBBCF84B5E5
:101790008F7784BDB9CF84B58F7DFBCF8091B000AA
:1017A0008F778093B000B0CF8091B0008F7DF9CF5C
:1017B000809190008F7780939000A6CF80919000C9
:1017C0008F7DF9CF80919000877FF5CF8091A00029
:1017D0008F778093A00098CF8091A0008F7DF9CF64
:1017E0008091A000877FF5CF809120018F77809333
:1017F00020018ACF809120018F7DF9CF8091200137
:10180000877FF5CF0E9486044D815E8169817A8150
:101810008AE193E00E949D026AE272E08AE193E02D
:101820000E947C0589819A819E878D878B819C810E
:10183000988B8F878D819E819A8B898B1A821982D2
:101840001C821B821E821D82CE0101960E944D06C3
:101850000E9486044B015C0180926C0290926D02A2
:10186000A0926E02B0926F022AE0BC01A401B7FE02
:101870000DC06DE28DE792E00E94A003442755273A
:10188000BA01481959096A097B092AE08DE792E0F3
:101890000E94860580906C0290906D02A0906E026E
:1018A000B0906F022AE0B501A401B7FE0DC06DE251
:1018B0008AE193E00E94A00344275527BA01481902
:1018C00059096A097B092AE08AE193E00E948605AA
:1018D0006DE272E08DE792E00E947C056AE272E0C0
:1018E0008DE792E00E947C056FE272E08DE792E066
:1018F0000E947C050E9400022B013C018AEF882E89
:10190000912CA12CB12C0E94000264197509860942
:101910009709683E734081059105A8F321E0821A7A
:101920009108A108B10888EE480E83E0581E611C9A
:10193000711C81149104A104B10429F718861F8237
:101940001A8619861C861B866D857E856115710534
:1019500031F049895A89CE0107960E94980661E3C1
:1019600072E0CE0101960E94C306BE016F5F7F4FF9
:10197000CE0107960E945506B82ECE0101960E9410
:101980004D06BB2031F14B855C85BE01695F7F4F01
:10199000CE0101960E94D40689819A810097A9F010
:1019A0000E945A0E7093710260937002CE010196EC
:1019B0000E944D06CE0107960E944D06CE010D965F
:1019C0000E944D060E940D04B3CD60E070E0CB0193
:1019D000E9CF65E372E0CE0101960E94C306BE0125
:1019E0006F5F7F4FCE0107960E945506B82ECE013D
:1019F00001960E944D06BB2051F04B855C85BE01CF
:101A0000695F7F4FCE0101960E94D406CFCF69E374
:101A100072E0CE0101960E94C306BE016F5F7F4F48
:101A2000CE0107960E945506B82ECE0101960E945F
:101A30004D06B110E2CF6DE372E0CE0101960E9437
:101A4000C306BE016F5F7F4FCE0107960E94550609
:101A5000B82ECE0101960E944D06B110ABCF61E4C5
:101A600072E0CE0101960E94C306BE016F5F7F4FF8
:101A7000CE0107960E945506B82ECE0101960E940F
:101A80004D06BB2029F010926B0210926A0292CF91
:101A900065E472E0CE0101960E94C306BE016F5F4D
:101AA0007F4FCE0107960E945506B82ECE010196B3
:101AB0000E944D06BB2049F010926C0210926D02FC
:101AC00010926E0210926F0275CF69E472E0CE013F
:101AD00001960E94C306BE016F5F7F4FCE0107963D
:101AE0000E945506B82ECE0101960E944D06BB20DD
:101AF00049F080916C0290916D0290936B028093FB
:101B00006A0258CF6DE472E0CE0101960E94C306CE
:101B1000BE016F5F7F4FCE0107960E945506B82E1B
:101B2000CE0101960E944D06BB2019F00E9434069A
:101B300041CF61E572E0CE0101960E94C306BE016D
:101B40006F5F7F4FCE0107960E945506B82ECE01DB
:101B500001960E944D06BB2019F00E941A062ACF5A
:101B600065E572E0CE0101960E94C306BE016F5F7B
:101B70007F4FCE0107960E945506B82ECE010196E2
:101B80000E944D06BB2019F00E94E20813CF69E5C0
:101B900072E0CE0101960E94C306BE016F5F7F4FC7
:101BA000CE0107960E945506B82ECE0101960E94DE
:101BB0004D06BB2009F443C080916C0290916D02E8
:101BC000A0916E02B0916F02892B8A2B8B2B11F0A2
:101BD0000E940F0920916802309169028091700281
:101BE00090917102821793070CF4E4CE80916A02FF
:101BF00090916B02092E000CAA0BBB0B40916C025A
:101C000050916D0260916E0270916F0248175907F2
:101C10006A077B0764F40E94340680916802909101
:101C2000690201969093690280936802D3CF84176A
:101C30009507A607B7078CF70E941A06EECF6DE549
:101C400072E0CE0101960E94C306BE016F5F7F4F16
:101C5000CE0107960E945506B82ECE0101960E942D
:101C60004D06BB2069F00E94E2080E940F09109205
:101C700069021092680210927102109270029ACE5C
:101C800061E672E0CE0101960E94C306BE016F5F5D
:101C90007F4FCE0107960E945506B82ECE010196C1
:101CA0000E944D06BB2009F485CE0E94E2080E94E6
:101CB0000F0980CE1F93FC0199278827BC01E89467
:101CC00011911032E9F3193010F01E30C8F31B32B5
:101CD00051F01D3249F4689406C00E94810E610FD4
:101CE000711D811D911D119110531A30B0F33EF4F6
:101CF00090958095709561957F4F8F4F9F4F1F9165
:101D00000895592F482F372F262F660F771F881FCA
:101D1000991F660F771F881F991F620F731F841FFB
:101D2000951F660F771F881F991F0895A1E21A2E2D
:101D3000AA1BBB1BFD010DC0AA1FBB1FEE1FFF1F6F
:101D4000A217B307E407F50720F0A21BB30BE40BBF
:101D5000F50B661F771F881F991F1A9469F7609506
:101D60007095809590959B01AC01BD01CF010895C0
:101D7000EE0FFF1F881F8BBF0790F691E02D19947F
:101D80000F931F93CF93DF938230910510F482E07D
:101D900090E0E0916C04F0916D0430E020E0B0E060
:101DA000A0E0309799F42115310509F44AC0281BA9
:101DB000390B24303105D8F58A819B816115710575
:101DC00089F1FB0193838283FE0111C0408151811F
:101DD0000281138148175907E0F04817590799F411
:101DE000109761F012960C93129713961C933296EB
:101DF000CF01DF91CF911F910F91089500936C0453
:101E000010936D04F4CF2115310551F0421753079B
:101E100038F0A901DB019A01BD01DF01F801C1CF52
:101E2000EF01F9CF90936D0480936C04CDCFFE0148
:101E3000E20FF31F81939193225031093983288354
:101E4000D7CF20916A0430916B04232B41F4209169
:101E500002023091030230936B0420936A042091B4
:101E60000002309101022115310541F42DB73EB732
:101E70004091040250910502241B350BE0916A0445
:101E8000F0916B04E217F307A0F42E1B3F0B281709
:101E9000390778F0AC014E5F5F4F2417350748F0E3
:101EA0004E0F5F1F50936B0440936A04819391938C
:101EB0009FCFF0E0E0E09CCFCF93DF930097E9F075
:101EC000FC01329713821282A0916C04B0916D04D0
:101ED000ED0130E020E01097A1F420813181820FE4
:101EE000931F20916A0430916B042817390709F079
:101EF00061C0F0936B04E0936A04DF91CF91089581
:101F0000EA01CE17DF07E8F54A815B819E014115A2
:101F10005105B1F7E901FB83EA8349915991C40F57
:101F2000D51FEC17FD0761F4808191810296840F23
:101F3000951FE90199838883828193819B838A839A
:101F4000F0E0E0E012968D919C9113970097B9F51F
:101F50002D913C911197CD010296820F931F2091F4
:101F60006A0430916B042817390739F6309751F518
:101F700010926D0410926C04B0936B04A0936A04E9
:101F8000BCCFD383C28340815181840F951FC81772
:101F9000D90761F44E5F5F4F88819981480F591FBF
:101FA000518340838A819B819383828321153105EC
:101FB00009F0B0CFF0936D04E0936C049ECFFD0167
:101FC000DC01C0CF13821282D7CF4F925F926F9203
:101FD0007F928F929F92AF92BF92CF92DF92EF92B9
:101FE000FF920F931F93CF93DF938C01009799F487
:101FF000CB01DF91CF911F910F91FF90EF90DF9078
:10200000CF90BF90AF909F908F907F906F905F9098
:102010004F900C94C00EFC01E60FF71F9C0122505C
:102020003109E217F30708F4AEC0D901CD91DC9174
:102030001197C617D70720F1C530D10578F0CE012A
:1020400004978617970750F0C61BD70B2297C193AA
:10205000D1936D937C93CF010E945C0FC801DF91F7
:10206000CF911F910F91FF90EF90DF90CF90BF9095
:10207000AF909F908F907F906F905F904F9008955A
:102080005B01AC1ABD0A4C018C0E9D1EA0916C0424
:10209000B0916D04512C412CF12CE12C109731F5AD
:1020A00080916A0490916B048815990509F05CC0D1
:1020B0004616570608F058C0809100029091010220
:1020C000009741F48DB79EB74091040250910502EC
:1020D000841B950BE817F90708F055C0F0936B04C3
:1020E000E0936A04F90171836083B8CF8D919C916C
:1020F000119712966C90129713967C901397A815CF
:10210000B90559F56C0142E0C40ED11CCA14DB04B8
:1021100020F1AC014A195B09DA011296159780F09B
:102120006282738251834083D9016D937C93E11461
:10213000F10471F0D7011396FC93EE9312978ECFB2
:1021400022968C0F9D1FF90191838083F301EFCFBD
:10215000F0936D04E0936C0481CF4816590608F49F
:102160002C017D01D3019ACFCB010E94C00E7C01CE
:10217000009749F0AE01B8010E94C610C8010E9444
:102180005C0F87016BCF10E000E068CFFB01DC0142
:1021900002C001900D9241505040D8F70895FB01C4
:1021A000DC0101900D920020E1F70895FB01DC01B4
:1021B0004150504030F08D910190801919F4002069
:0C21C000B9F7881B990B0895F894FFCF25
:1021CC0000006E04800000000000A0039D02E302EA
:1021DC00ED035403F20246030000000070049D025C
:1021EC007905360444045A0463050D0A002E007C5C
:1021FC0000637963006F646C0063646C00636C6CE7
:10220C000072736C00727368006F706C0066776498
:10221C00007265760062726B007374610072737485
:06222C0000706175000066
:00000001FF
