:100000000C94E3000C9414010C9414010C9414014E
:100010000C9414010C9414010C9414010C9414010C
:100020000C9414010C9414010C9414010C941401FC
:100030000C9414010C9414010C9414010C941401EC
:100040000C9414010C9414010C9414010C941401DC
:100050000C9414010C9414010C9414010C94E104FC
:100060000C9414010C94B5050C948B050C9414019C
:100070000C9414010C9414010C9414010C941401AC
:100080000C9414010C9414010C9414010C9414019C
:100090000C9414010C9414010C9414010C9414018C
:1000A0000C9414010C9414010C9414010C9414017C
:1000B0000C9414010C9414010C9414010C9414016C
:1000C0000C9414010C9414010C9414010C94550517
:1000D0000C942B050C9414010C9414010C94140131
:1000E0000C9414010C943D020C94ED010C948A01C3
:1000F0000C945D010C948A020C94FB010C94990100
:100100000C94EB0500002200250028002B002E0097
:100110003100340002010000050108010B0100005C
:100120002100240027002A002D00300033000101A7
:100130000000040107010A01050505050705080877
:100140000808020202020A0A080804040404010161
:100150000101010101010303030303030303040776
:1001600007070C0C0C0C0C0C0C0C0202020206060D
:100170000606060606060B0B0B0B0B0B0B0B010200
:1001800010202008081020401020408002010201A9
:100190000804020101020408102040808040201061
:1001A00008040201800402018040201008040201BA
:1001B0000804020101020408102040800102040822
:1001C00010204080EB0511241FBECFEFD1E2DEBF2F
:1001D000CDBF00E00CBF23E0A0E4B2E001C01D925F
:1001E000AF38B207E1F712E0A0E0B2E0EEEDF1E1E6
:1001F00000E00BBF02C007900D92A034B107D9F701
:1002000010E0C3EED0E000E006C021970109802F86
:10021000FE010E94C106C23ED10780E00807A9F78F
:100220000E943E060C94ED080C940000FC01A0898D
:10023000B18982E08C93A485B5851C92A685B7858B
:100240008FEC8C93108EA489B58986E08C93A2895B
:10025000B3898C9180618C93A289B3898C918860D9
:100260008C93A289B3898C9180688C930288F389DE
:10027000E02D80818F7D8083089590E0FC01E2581D
:10028000FE4F2491885C9E4FFC018491882399F055
:1002900090E0880F991FFC01E25EFE4FA591B4919A
:1002A000FC01EC5FFE4F859194918FB7F894EC912F
:1002B000E22BEC938FBF08950895AF92BF92CF9237
:1002C000DF92EF92FF920F931F93CF93DF936C0116
:1002D0007B018B01040F151FEB015E01AE18BF08F7
:1002E000C017D10759F06991D601ED91FC910190A9
:1002F000F081E02DC6011995892B79F7C501DF91B1
:10030000CF911F910F91FF90EF90DF90CF90BF9012
:10031000AF900895FC01538D448D252F30E0842F3C
:1003200090E0821B930B541710F0CF96089501971D
:100330000895FC01918D828D981761F0A28DAE0F0A
:10034000BF2FB11D5D968C91928D9F5F9F73928F91
:1003500090E008958FEF9FEF08952FB7F894809164
:100360004D0290914E02A0914F02B09150022FBFCA
:100370008093590290935A02A0935B02B0935C025F
:1003800081E592E00E94990197FF26C02FB7F8946B
:1003900080914D0290914E02A0914F02B091500277
:1003A0002FBF4091590250915A0260915B027091A7
:1003B0005C02841B950BA60BB70B40915502509124
:1003C0005602609157027091580284179507A6074C
:1003D000B707B0F28FEF9FEF0895FC01918D828DEA
:1003E000981731F0828DE80FF11D858D90E008950A
:1003F0008FEF9FEF0895FC01918D228D892F90E062
:10040000805C9F4F821B91098F739927089581E526
:1004100092E00E94FB0121E0892B09F420E0822F69
:1004200008958EEE92E00E94FB0121E0892B09F4F1
:1004300020E0822F0895FC01A48DA80FB92FB11DD3
:10044000A35ABF4F2C91848D90E001968F7399270A
:10045000848FA689B7892C93A089B1898C918370E8
:1004600080648C93938D848D981306C00288F389E1
:10047000E02D80818F7D80830895EF92FF920F930E
:100480001F93CF93DF93EC0181E0888F9B8D8C8D40
:1004900098131AC0E889F989808185FF15C09FB734
:1004A000F894EE89FF896083E889F98980818370F7
:1004B000806480839FBF81E090E0DF91CF911F91A6
:1004C0000F91FF90EF900895F62E0B8D10E00F5FC7
:1004D0001F4F0F731127E02E8C8D8E110CC00FB69D
:1004E00007FCFACFE889F989808185FFF5CFCE0135
:1004F0000E941B02F1CFEB8DEC0FFD2FF11DE35A93
:10050000FF4FF0829FB7F8940B8FEA89FB898081B7
:100510008062CFCFCF93DF93EC01888D8823B9F031
:10052000AA89BB89E889F9898C9185FD03C08081FE
:1005300086FD0DC00FB607FCF7CF8C9185FFF2CF7B
:10054000808185FFEDCFCE010E941B02E9CFDF91B4
:10055000CF91089580E090E0892B29F00E9411024C
:1005600081110E94000080E090E0892B49F080E03A
:1005700090E0892B29F00E94000081110E94000068
:1005800080E090E0892B29F00E94070281110E94EF
:10059000000080E090E0892B49F080E090E0892B1A
:1005A00029F00E94000081110C9400000895CF935F
:1005B000DF93FC0101900020E9F73197AF01481B60
:1005C000590BBC018EEE92E00E945D01EC0142E00D
:1005D00050E068E172E08EEE92E00E945D018C0FC7
:1005E0009D1FDF91CF910895FB01DC018D919C91BE
:1005F000009761F0608171816115710539F0448166
:1006000055810E94DF0821E0892B09F020E0822F2C
:100610000895FC0180819181009711F00C94650789
:1006200008950F931F93CF93DF93EC0188819981F5
:10063000009759F02A813B812617370730F081E077
:10064000DF91CF911F910F9108958B016F5F7F4FC5
:100650000E94EE07009759F0998388831B830A83D1
:100660002C813D81232B59F7FC011082E8CF80E0DB
:10067000E7CFEF92FF920F931F93CF93DF93EC019D
:100680007B01FB0101900020E9F731978F01061BE8
:10069000170BB8010E94110328813981811113C001
:1006A0002115310519F0C9010E94650719821882C8
:1006B0001D821C821B821A82DF91CF911F910F91A4
:1006C000FF90EF9008951D830C83B701C901DF915E
:1006D000CF911F910F91FF90EF900C94D808AF929B
:1006E000BF92CF92DF92EF92FF920F931F93CF931F
:1006F000DF93CDB7DEB762970FB6F894DEBF0FBEBB
:10070000CDBF8FB7F894C0904D02D0904E02E090CC
:100710004F02F09050028FBF1E861D86188A1F86DA
:100720001A8A198A6AE172E0CE010D960E94390395
:100730008091440290914502A0914602B0914702F7
:10074000A7019601281B390B4A0B5B0BDA01C90183
:10075000803B9440A105B10508F471C08BE192E0A3
:100760000E94D70281E592E00E94FB01892B09F4E7
:100770003FC01A8219821C821B821E821D826AE17E
:1007800072E0CE0101960E9439030E94AD010D81F5
:100790001E8197FD19C08F8318860F5F1F4FB80108
:1007A000CE0101960E941103882379F329813A81B1
:1007B0008D819E81BE01695F7F4F820F931F0E94D2
:1007C000D8081E830D83E1CF89819A8198878F8312
:1007D0008B819C819A8789871C870B871A82198253
:1007E0001C821B821E821D82CE0101960E9409037B
:1007F0008D859E85009709F4CCC06F817885611541
:10080000710509F4C4C04F8558892B853C85421772
:10081000530708F4BCC00E94D8088B859C859A8B2E
:10082000898B1C861B86CE0107960E940903C09205
:100830004402D0924502E0924602F0924702809133
:10084000400290914102A0914202B0914302A7015F
:100850009601281B390B4A0B5B0BDA01C901803B5F
:100860009440A105B10508F47DC082E292E00E94A7
:10087000D70218861F821A8619861C861B860D854C
:100880001E8501151105B9F0A988BA88B501CE01F8
:1008900007960E9411032F81388581118BC0211585
:1008A000310519F0C9010E94650718861F821C8650
:1008B0001B861A8619861A8219821C821B821E8246
:1008C0001D8269E272E0CE0101960E9439032B85F8
:1008D0003C858D819E8110E02817390740F0BE01CC
:1008E0006F5F7F4FCE0107960E94F402182FCE0152
:1008F00001960E9409038EE292E0111123C01A8230
:1009000019821C821B821E821D8264E372E0CE016A
:1009100001960E9439032B853C858D819E81281785
:10092000390740F0BE016F5F7F4FCE0107960E94EE
:10093000F402182FCE0101960E940903112331F011
:1009400089E392E00E94D7020E946F03CE010796CE
:100950000E940903C0924002D0924102E0924202FA
:10096000F0924302CE010D960E94090362960FB6E3
:10097000F894DEBF0FBECDBFDF91CF911F910F91D5
:10098000FF90EF90DF90CF90BF90AF9008950E94BE
:1009900065078F8198859E878D8789859A85988B35
:1009A0008F878B859C859A8B898B18861F821A86E8
:1009B000198637CFBC86AB86B801C9010E94D8081A
:1009C0007ACF1F920F920FB60F9211242F933F935D
:1009D0008F939F93AF93BF9380914D0290914E025E
:1009E000A0914F02B091500230914C0223E0230FAE
:1009F0002D3758F50196A11DB11D20934C0280930F
:100A00004D0290934E02A0934F02B09350028091FA
:100A1000480290914902A0914A02B0914B0201967E
:100A2000A11DB11D8093480290934902A0934A02F0
:100A3000B0934B02BF91AF919F918F913F912F91B6
:100A40000F900FBE0F901F90189526E8230F029667
:100A5000A11DB11DD2CF1F920F920FB60F9211247C
:100A60000BB60F922F933F934F935F936F937F93A8
:100A70008F939F93AF93BF93EF93FF9381E592E0A2
:100A80000E941B02FF91EF91BF91AF919F918F91B7
:100A90007F916F915F914F913F912F910F900BBE7E
:100AA0000F900FBE0F901F9018951F920F920FB6C8
:100AB0000F9211240BB60F922F938F939F93EF9366
:100AC000FF93E0916102F09162028081E091670200
:100AD000F091680282FD1DC0908180916A028F5F53
:100AE0008F7320916B02821741F0E0916A02F0E06F
:100AF000EF5AFD4F958F80936A02FF91EF919F917E
:100B00008F912F910F900BBE0F900FBE0F901F90E3
:100B100018958081F2CF1F920F920FB60F92112479
:100B20000BB60F922F933F934F935F936F937F93E7
:100B30008F939F93AF93BF93EF93FF938EEE92E0CB
:100B40000E941B02FF91EF91BF91AF919F918F91F6
:100B50007F916F915F914F913F912F910F900BBEBD
:100B60000F900FBE0F901F9018951F920F920FB607
:100B70000F9211240BB60F922F938F939F93EF93A5
:100B8000FF93E091FE02F091FF028081E091040367
:100B9000F091050382FD1DC09081809107038F5F56
:100BA0008F7320910803821741F0E0910703F0E072
:100BB000E251FD4F958F80930703FF91EF919F9135
:100BC0008F912F910F900BBE0F900FBE0F901F9023
:100BD00018958081F2CFE1E5F2E01382128248EEAF
:100BE00053E060E070E044835583668377838AE056
:100BF00092E09183808325ED30E03587248724EDD2
:100C000030E03787268720ED30E0318B208B21EDD7
:100C100030E0338B228B22ED30E0358B248B26EDB8
:100C200030E0378B268B118E128E138E148EEEEEE3
:100C3000F2E0138212824483558366837783918323
:100C4000808385EC90E09587848784EC90E097879B
:100C5000868780EC90E0918B808B81EC90E0938B89
:100C6000828B82EC90E0958B848B86EC90E0978B66
:100C7000868B118E128E138E148E0895789484B5FF
:100C8000826084BD84B5816084BD85B5826085BD88
:100C900085B5816085BD80916E00816080936E0016
:100CA0001092810080918100826080938100809108
:100CB00081008160809381008091800081608093B9
:100CC00080008091B10084608093B1008091B00079
:100CD00081608093B0008091910082608093910048
:100CE000809191008160809391008091900081605B
:100CF000809390008091A10082608093A1008091F8
:100D0000A10081608093A1008091A0008160809308
:100D1000A0008091210182608093210180912101B6
:100D20008160809321018091200181608093200166
:100D300080917A00846080937A0080917A0082604A
:100D400080937A0080917A00816080937A0080910C
:100D50007A00806880937A001092C1008EEE92E053
:100D60000E94160181E592E00E9416018DE00E942A
:100D70003D0187E00E943D010E946F030E94AA028C
:100D8000FBCFEE0FFF1F881F8BBF0790F691E02D62
:100D900019940F931F93CF93DF938230910510F432
:100DA00082E090E0E0918D03F0918E0330E020E04E
:100DB000B0E0A0E0309799F42115310509F44AC05C
:100DC000281B390B24303105D8F58A819B816115A8
:100DD000710589F1FB0193838283FE0111C040817B
:100DE00051810281138148175907E0F048175907CC
:100DF00099F4109761F012960C93129713961C9326
:100E00003296CF01DF91CF911F910F9108950093FA
:100E10008D0310938E03F4CF2115310551F0421745
:100E2000530738F0A901DB019A01BD01DF01F80188
:100E3000C1CFEF01F9CF90938E0380938D03CDCF77
:100E4000FE01E20FF31F8193919322503109398300
:100E50002883D7CF20918B0330918C03232B41F42F
:100E6000209102023091030230938C0320938B0374
:100E700020910002309101022115310541F42DB776
:100E80003EB74091040250910502241B350BE091BE
:100E90008B03F0918C03E217F307A0F42E1B3F0B9A
:100EA0002817390778F0AC014E5F5F4F24173507DC
:100EB00048F04E0F5F1F50938C0340938B03819338
:100EC00091939FCFF0E0E0E09CCFCF93DF9300972A
:100ED000E9F0FC01329713821282A0918D03B09148
:100EE0008E03ED0130E020E01097A1F420813181E4
:100EF000820F931F20918B0330918C0328173907A1
:100F000009F061C0F0938C03E0938B03DF91CF91E4
:100F10000895EA01CE17DF07E8F54A815B819E015B
:100F200041155105B1F7E901FB83EA8349915991D4
:100F3000C40FD51FEC17FD0761F4808191810296E3
:100F4000840F951FE90199838883828193819B8314
:100F50008A83F0E0E0E012968D919C9113970097C0
:100F6000B9F52D913C911197CD010296820F931FF7
:100F700020918B0330918C032817390739F630976D
:100F800051F510928E0310928D03B0938C03A093B1
:100F90008B03BCCFD383C28340815181840F951FC3
:100FA000C817D90761F44E5F5F4F88819981480F58
:100FB000591F518340838A819B81938382832115AA
:100FC000310509F0B0CFF0938E03E0938D039ECFEF
:100FD000FD01DC01C0CF13821282D7CF4F925F9206
:100FE0006F927F928F929F92AF92BF92CF92DF9239
:100FF000EF92FF920F931F93CF93DF938C01009793
:1010000099F4CB01DF91CF911F910F91FF90EF9059
:10101000DF90CF90BF90AF909F908F907F906F9018
:101020005F904F900C94C906FC01E60FF71F9C01DE
:1010300022503109E217F30708F4AEC0D901CD916F
:10104000DC911197C617D70720F1C530D10578F08C
:10105000CE0104978617970750F0C61BD70B22972F
:10106000C193D1936D937C93CF010E946507C80112
:10107000DF91CF911F910F91FF90EF90DF90CF9074
:10108000BF90AF909F908F907F906F905F904F90A8
:1010900008955B01AC1ABD0A4C018C0E9D1EA091F7
:1010A0008D03B0918E03512C412CF12CE12C109723
:1010B00031F580918B0390918C038815990509F087
:1010C0005CC04616570608F058C080910002909107
:1010D0000102009741F48DB79EB7409104025091F0
:1010E0000502841B950BE817F90708F055C0F0932B
:1010F0008C03E0938B03F90171836083B8CF8D91EA
:101100009C91119712966C90129713967C9013975E
:10111000A815B90559F56C0142E0C40ED11CCA14DA
:10112000DB0420F1AC014A195B09DA01129615972C
:1011300080F06282738251834083D9016D937C93E6
:10114000E114F10471F0D7011396FC93EE9312971A
:101150008ECF22968C0F9D1FF90191838083F3011E
:10116000EFCFF0938E03E0938D0381CF481659069D
:1011700008F42C017D01D3019ACFCB010E94C9064E
:101180007C01009749F0AE01B8010E94CF08C80168
:101190000E94650787016BCF10E000E068CFFB017C
:1011A000DC0102C001900D9241505040D8F70895E3
:1011B000FB01DC0101900D920020E1F70895FB0195
:1011C000DC014150504030F08D910190801919F4AC
:0E11D0000020B9F7881B990B0895F894FFCF03
:1011DE0000008F038000000000003D025D018A01C7
:1011EE008A02FB019901ED010D0A004576656E74C8
:1011FE0031004576656E7432005453543100746577
:10120E007374310054535432007465737432000099
:00000001FF
