:100000000C94E3000C9414010C9414010C9414014E
:100010000C9414010C9414010C9414010C9414010C
:100020000C9414010C9414010C9414010C941401FC
:100030000C9414010C9414010C9414010C941401EC
:100040000C9414010C9414010C9414010C941401DC
:100050000C9414010C9414010C9414010C94CB0511
:100060000C9414010C949F060C9475060C941401C6
:100070000C9414010C9414010C9414010C941401AC
:100080000C9414010C9414010C9414010C9414019C
:100090000C9414010C9414010C9414010C9414018C
:1000A0000C9414010C9414010C9414010C9414017C
:1000B0000C9414010C9414010C9414010C9414016C
:1000C0000C9414010C9414010C9414010C943F062C
:1000D0000C9415060C9414010C9414010C94140146
:1000E0000C9414010C943D020C94D5060C948A02D5
:1000F0000C94FB010C9499010C945D010C948A0101
:100100000C94ED0100002200250028002B002E0099
:100110003100340002010000050108010B0100005C
:100120002100240027002A002D00300033000101A7
:100130000000040107010A01050505050705080877
:100140000808020202020A0A080804040404010161
:100150000101010101010303030303030303040776
:1001600007070C0C0C0C0C0C0C0C0202020206060D
:100170000606060606060B0B0B0B0B0B0B0B010200
:1001800010202008081020401020408002010201A9
:100190000804020101020408102040808040201061
:1001A00008040201800402018040201008040201BA
:1001B0000804020101020408102040800102040822
:1001C00010204080D50611241FBECFEFD1E2DEBF44
:1001D000CDBF00E00CBF23E0AAE5B2E001C01D9254
:1001E000A93AB207E1F712E0A0E0B2E0EEE6F4E1EE
:1001F00000E00BBF02C007900D92AA35B107D9F7F6
:1002000010E0C3EED0E000E006C021970109802F86
:10021000FE010E940908C23ED10780E00807A9F745
:100220000E9428070C94350A0C940000FC01A08958
:10023000B18982E08C93A485B5851C92A685B7858B
:100240008FEC8C93108EA489B58986E08C93A2895B
:10025000B3898C9180618C93A289B3898C918860D9
:100260008C93A289B3898C9180688C930288F389DE
:10027000E02D80818F7D8083089590E0FC01E2581D
:10028000FE4F2491885C9E4FFC018491882399F055
:1002900090E0880F991FFC01E25EFE4FA591B4919A
:1002A000FC01EC5FFE4F859194918FB7F894EC912F
:1002B000E22BEC938FBF08950895AF92BF92CF9237
:1002C000DF92EF92FF920F931F93CF93DF936C0116
:1002D0007B018B01040F151FEB015E01AE18BF08F7
:1002E000C017D10759F06991D601ED91FC910190A9
:1002F000F081E02DC6011995892B79F7C501DF91B1
:10030000CF911F910F91FF90EF90DF90CF90BF9012
:10031000AF900895FC01538D448D252F30E0842F3C
:1003200090E0821B930B541710F0CF96089501971D
:100330000895FC01918D828D981761F0A28DAE0F0A
:10034000BF2FB11D5D968C91928D9F5F9F73928F91
:1003500090E008958FEF9FEF08952FB7F894809164
:10036000670290916802A0916902B0916A022FBF62
:100370008093730290937402A0937502B0937602F7
:100380008BE692E00E94990197FF26C02FB7F89460
:100390008091670290916802A0916902B0916A020F
:1003A0002FBF409173025091740260917502709159
:1003B0007602841B950BA60BB70B40916F025091F0
:1003C0007002609171027091720284179507A607FE
:1003D000B707B0F28FEF9FEF0895FC01918D828DEA
:1003E000981731F0828DE80FF11D858D90E008950A
:1003F0008FEF9FEF0895FC01918D228D892F90E062
:10040000805C9F4F821B91098F73992708958BE61B
:1004100092E00E94FB0121E0892B09F420E0822F69
:10042000089588E093E00E94FB0121E0892B09F404
:1004300020E0822F0895FC01A48DA80FB92FB11DD3
:10044000A35ABF4F2C91848D90E001968F7399270A
:10045000848FA689B7892C93A089B1898C918370E8
:1004600080648C93938D848D981306C00288F389E1
:10047000E02D80818F7D80830895EF92FF920F930E
:100480001F93CF93DF93EC0181E0888F9B8D8C8D40
:1004900098131AC0E889F989808185FF15C09FB734
:1004A000F894EE89FF896083E889F98980818370F7
:1004B000806480839FBF81E090E0DF91CF911F91A6
:1004C0000F91FF90EF900895F62E0B8D10E00F5FC7
:1004D0001F4F0F731127E02E8C8D8E110CC00FB69D
:1004E00007FCFACFE889F989808185FFF5CFCE0135
:1004F0000E941B02F1CFEB8DEC0FFD2FF11DE35A93
:10050000FF4FF0829FB7F8940B8FEA89FB898081B7
:100510008062CFCFCF93DF93EC01888D8823B9F031
:10052000AA89BB89E889F9898C9185FD03C08081FE
:1005300086FD0DC00FB607FCF7CF8C9185FFF2CF7B
:10054000808185FFEDCFCE010E941B02E9CFDF91B4
:10055000CF91089580E090E0892B29F00E9411024C
:1005600081110E94000080E090E0892B49F080E03A
:1005700090E0892B29F00E94000081110E94000068
:1005800080E090E0892B29F00E94070281110E94EF
:10059000000080E090E0892B49F080E090E0892B1A
:1005A00029F00E94000081110C9400000895FC01C4
:1005B00001900020E9F73197AF01481B590BBC01AE
:1005C00088E093E00C945D01FC01808191810097AB
:1005D00011F00C94AD0808958F929F92AF92BF9244
:1005E000CF92DF92EF92FF920F931F93CF93DF93FF
:1005F000CDB7DEB7A1970FB6F894DEBF0FBECDBF63
:100600006C01990FEE08FF08F7FE41C06DE288E02B
:1006100093E00E943D028C0122273327A9012C1967
:100620003D094E095F0919A2CE0181967C019AE02D
:10063000892E912CA12CB12CCA01B901A5019401DC
:100640000E94E707605DF70162937F012115310584
:100650004105510589F790E080E0309719F0CF010E
:100660000E94D702800F911FA1960FB6F894DEBFAB
:100670000FBECDBFDF91CF911F910F91FF90EF90F3
:10068000DF90CF90BF90AF909F908F900895A7017B
:10069000960119A28E010F5D1F4F8AE0C82ED12C42
:1006A000E12CF12CCA01B901A70196010E94E707CC
:1006B000605DF80162938F012115310541055105F7
:1006C00089F790E080E0309779F2CF010E94D7025D
:1006D000CBCFFB0144815581FC0124813581241756
:1006E000350778F080819181009759F0FB01608196
:1006F00071816115710529F00E94270A21E0892B7B
:1007000009F020E0822F08950F931F93CF93DF937A
:10071000EC0188819981009759F02A813B81261745
:10072000370730F081E0DF91CF911F910F9108954D
:100730008B016F5F7F4F0E943609009759F09983B4
:1007400088831B830A832C813D81232B59F7FC016D
:100750001082E8CF80E0E7CFEF92FF920F931F93D4
:10076000CF93DF93EC017B018A01BA010E948403DD
:1007700028813981811114C02115310519F0C90171
:100780000E94AD08198218821D821C821B821A8267
:10079000CE01DF91CF911F910F91FF90EF900895BF
:1007A0001D830C83B701C9010E94200AF1CFFC010F
:1007B000118210821382128215821482FB01019031
:1007C0000020E9F73197AF01461B570B0C94AC039F
:1007D000AF92BF92CF92DF92EF92FF920F931F934F
:1007E000CF93DF93EC017B016A0183E0A82EB12C4B
:1007F0004330510520F45A0193E0C92ED12C61E217
:1008000072E0CE010E94D703D70114960D911C917E
:10081000A016B10628F5C016D10608F48601D70146
:10082000ED91FC911197E00FF11FD08010826D9136
:100830007C916A0D7B1D61157105F1F0FB01019042
:100840000020E9F73197AF01461B570BCE010E94FC
:10085000AC03F70180819181080F191FD801DC9248
:10086000CE01DF91CF911F910F91FF90EF90DF901C
:10087000CF90BF90AF90089588819981009711F033
:100880000E94AD08198218821D821C821B821A8266
:10089000E0CFCF92DF92EF92FF920F931F93CF930F
:1008A000DF93CDB7DEB762970FB6F894DEBF0FBE09
:1008B000CDBF8FB7F894C0906702D0906802E090E7
:1008C0006902F0906A028FBF61E272E0CE010D967C
:1008D0000E94D70380915E0290915F02A091600216
:1008E000B0916102A7019601281B390B4A0B5B0BE3
:1008F000DA01C901803B9440A105B10508F46EC03E
:1009000088E192E00E94D7028FE192E00E94D70234
:100910008BE692E00E94FB01892BC9F161E272E053
:10092000CE0101960E94D7030E94AD010D811E8168
:1009300097FD19C08F8318860F5F1F4FB801CE0136
:1009400001960E948403882379F329813A818D815D
:100950009E81BE01695F7F4F820F931F0E94200A14
:100960001E830D83E1CF89819A8198878F838B8144
:100970009C819A8789871C870B871A8219821C821F
:100980001B821E821D82CE0101960E94E4028D858B
:100990009E85009709F4A4C06F8178856115710563
:1009A00009F49CC04F8558892B853C854217530715
:1009B00008F494C00E94200A8B859C859A8B898BB1
:1009C0001C861B86CE0107960E94E402C0925E023E
:1009D000D0925F02E0926002F092610280915A022E
:1009E00090915B02A0915C02B0915D02A70196011B
:1009F000281B390B4A0B5B0BDA01C901803B944081
:100A0000A105B10508F457C082E292E00E94D70226
:100A10008FE192E00E94D70218861F821A861986FB
:100A20001C861B866D857E856115710531F04989AF
:100A30005A89CE0107960E94AC0369E272E0CE01AA
:100A400001960E94D703BE016F5F7F4FCE010796CC
:100A50000E946903182FCE0101960E94E4028EE2E3
:100A600092E0111116C064E372E0CE0101960E947B
:100A7000D703BE016F5F7F4FCE0107960E946903C7
:100A8000182FCE0101960E94E4021123D1F189E3CF
:100A900092E00E94D7020E9449040E944904CE01BC
:100AA00007960E94E402C0925A02D0925B02E09242
:100AB0005C02F0925D02CE010D960E94E402629605
:100AC0000FB6F894DEBF0FBECDBFDF91CF911F915F
:100AD0000F91FF90EF90DF90CF9008950E94AD08A6
:100AE0008F8198859E878D8789859A85988B8F873A
:100AF0008B859C859A8B898B18861F821A8619860E
:100B00005FCF6FE372E0CE0101960E94D703BE0172
:100B10006F5F7F4FCE0107960E946903182FCE01A9
:100B200001960E94E40283E492E0111117C06CE484
:100B300072E0CE0101960E94D703BE016F5F7F4F26
:100B4000CE0107960E946903182FCE0101960E94DC
:100B5000E402112309F4A3CF80E592E00E94D702BA
:100B60004B855C85BE01695F7F4FCE0101960E9477
:100B7000E80389819A81009751F00E94AB07CB016D
:100B80000E94EC02CE0101960E94E40288CF60E050
:100B900070E0CB01F4CF1F920F920FB60F92112489
:100BA0002F933F938F939F93AF93BF93809167024F
:100BB00090916802A0916902B0916A023091660238
:100BC00023E0230F2D3758F50196A11DB11D209369
:100BD00066028093670290936802A0936902B093C3
:100BE0006A028091620290916302A0916402B091C6
:100BF00065020196A11DB11D80936202909363026C
:100C0000A0936402B0936502BF91AF919F918F91C1
:100C10003F912F910F900FBE0F901F90189526E8CF
:100C2000230F0296A11DB11DD2CF1F920F920FB6B6
:100C30000F9211240BB60F922F933F934F935F9314
:100C40006F937F938F939F93AF93BF93EF93FF9394
:100C50008BE692E00E941B02FF91EF91BF91AF9152
:100C60009F918F917F916F915F914F913F912F91C4
:100C70000F900BBE0F900FBE0F901F9018951F92F4
:100C80000F920FB60F9211240BB60F922F938F93E2
:100C90009F93EF93FF93E0917B02F0917C02808120
:100CA000E0918102F091820282FD1DC090818091CD
:100CB00084028F5F8F7320918502821741F0E0914B
:100CC0008402F0E0E559FD4F958F80938402FF91F7
:100CD000EF919F918F912F910F900BBE0F900FBEB0
:100CE0000F901F9018958081F2CF1F920F920FB630
:100CF0000F9211240BB60F922F933F934F935F9354
:100D00006F937F938F939F93AF93BF93EF93FF93D3
:100D100088E093E00E941B02FF91EF91BF91AF9199
:100D20009F918F917F916F915F914F913F912F9103
:100D30000F900BBE0F900FBE0F901F9018951F9233
:100D40000F920FB60F9211240BB60F922F938F9321
:100D50009F93EF93FF93E0911803F0911903808123
:100D6000E0911E03F0911F0382FD1DC090818091D0
:100D700021038F5F8F7320912203821741F0E0914E
:100D80002103F0E0E85FFC4F958F80932103FF91F2
:100D9000EF919F918F912F910F900BBE0F900FBEEF
:100DA0000F901F9018958081F2CFEBE6F2E013824E
:100DB000128248EE53E060E070E04483558366831E
:100DC00077838AE092E09183808325ED30E0358758
:100DD000248724ED30E03787268720ED30E0318B03
:100DE000208B21ED30E0338B228B22ED30E0358BF0
:100DF000248B26ED30E0378B268B118E128E138ECE
:100E0000148EE8E0F3E013821282448355836683F4
:100E100077839183808385EC90E09587848784EC49
:100E200090E09787868780EC90E0918B808B81ECB7
:100E300090E0938B828B82EC90E0958B848B86EC98
:100E400090E0978B868B118E128E138E148E0895E0
:100E5000789484B5826084BD84B5816084BD85B595
:100E6000826085BD85B5816085BD80916E008160A1
:100E700080936E0010928100809181008260809347
:100E80008100809181008160809381008091800049
:100E90008160809380008091B10084608093B10074
:100EA0008091B00081608093B00080919100826059
:100EB0008093910080919100816080939100809156
:100EC00090008160809390008091A1008260809367
:100ED000A1008091A10081608093A1008091A00079
:100EE00081608093A0008091210182608093210124
:100EF0008091210181608093210180912001816096
:100F00008093200180917A00846080937A008091A0
:100F10007A00826080937A0080917A008160809369
:100F20007A0080917A00806880937A001092C100E4
:100F300088E093E00E9416018BE692E00E94160181
:100F40008DE00E943D0187E00E943D010E9449041E
:100F50000E94AA02FBCF1F93FC0199278827BC019E
:100F6000E89411911032E9F3193010F01E30C8F3F3
:100F70001B3251F01D3249F4689406C00E94D2071A
:100F8000610F711D811D911D119110531A30B0F325
:100F90003EF490958095709561957F4F8F4F9F4F50
:100FA0001F910895592F482F372F262F660F771F2F
:100FB000881F991F660F771F881F991F620F731F65
:100FC000841F951F660F771F881F991F0895A1E240
:100FD0001A2EAA1BBB1BFD010DC0AA1FBB1FEE1FB3
:100FE000FF1FA217B307E407F50720F0A21BB30BFE
:100FF000E40BF50B661F771F881F991F1A9469F77A
:1010000060957095809590959B01AC01BD01CF01D5
:101010000895EE0FFF1F881F8BBF0790F691E02DFC
:1010200019940F931F93CF93DF938230910510F49F
:1010300082E090E0E091A703F091A80330E020E087
:10104000B0E0A0E0309799F42115310509F44AC0C9
:10105000281B390B24303105D8F58A819B81611515
:10106000710589F1FB0193838283FE0111C04081E8
:1010700051810281138148175907E0F04817590739
:1010800099F4109761F012960C93129713961C9393
:101090003296CF01DF91CF911F910F910895009368
:1010A000A7031093A803F4CF2115310551F042177F
:1010B000530738F0A901DB019A01BD01DF01F801F6
:1010C000C1CFEF01F9CF9093A8038093A703CDCFB1
:1010D000FE01E20FF31F819391932250310939836E
:1010E0002883D7CF2091A5033091A603232B41F469
:1010F00020910202309103023093A6032093A503AE
:1011000020910002309101022115310541F42DB7E3
:101110003EB74091040250910502241B350BE0912B
:10112000A503F091A603E217F307A0F42E1B3F0BD3
:101130002817390778F0AC014E5F5F4F2417350749
:1011400048F04E0F5F1F5093A6034093A503819371
:1011500091939FCFF0E0E0E09CCFCF93DF93009797
:10116000E9F0FC01329713821282A091A703B0919B
:10117000A803ED0130E020E01097A1F42081318137
:10118000820F931F2091A5033091A60328173907DA
:1011900009F061C0F093A603E093A503DF91CF911E
:1011A0000895EA01CE17DF07E8F54A815B819E01C9
:1011B00041155105B1F7E901FB83EA834991599142
:1011C000C40FD51FEC17FD0761F480819181029651
:1011D000840F951FE90199838883828193819B8382
:1011E0008A83F0E0E0E012968D919C91139700972E
:1011F000B9F52D913C911197CD010296820F931F65
:101200002091A5033091A6032817390739F63097A6
:1012100051F51092A8031092A703B093A603A093D0
:10122000A503BCCFD383C28340815181840F951F16
:10123000C817D90761F44E5F5F4F88819981480FC5
:10124000591F518340838A819B8193838283211517
:10125000310509F0B0CFF093A803E093A7039ECF28
:10126000FD01DC01C0CF13821282D7CF4F925F9273
:101270006F927F928F929F92AF92BF92CF92DF92A6
:10128000EF92FF920F931F93CF93DF938C01009700
:1012900099F4CB01DF91CF911F910F91FF90EF90C7
:1012A000DF90CF90BF90AF909F908F907F906F9086
:1012B0005F904F900C941108FC01E60FF71F9C0102
:1012C00022503109E217F30708F4AEC0D901CD91DD
:1012D000DC911197C617D70720F1C530D10578F0FA
:1012E000CE0104978617970750F0C61BD70B22979D
:1012F000C193D1936D937C93CF010E94AD08C80137
:10130000DF91CF911F910F91FF90EF90DF90CF90E1
:10131000BF90AF909F908F907F906F905F904F9015
:1013200008955B01AC1ABD0A4C018C0E9D1EA09164
:10133000A703B091A803512C412CF12CE12C10975C
:1013400031F58091A5039091A6038815990509F0C0
:101350005CC04616570608F058C080910002909174
:101360000102009741F48DB79EB74091040250915D
:101370000502841B950BE817F90708F055C0F09398
:10138000A603E093A503F90171836083B8CF8D9123
:101390009C91119712966C90129713967C901397CC
:1013A000A815B90559F56C0142E0C40ED11CCA1448
:1013B000DB0420F1AC014A195B09DA01129615979A
:1013C00080F06282738251834083D9016D937C9354
:1013D000E114F10471F0D7011396FC93EE93129788
:1013E0008ECF22968C0F9D1FF90191838083F3018C
:1013F000EFCFF093A803E093A70381CF48165906D7
:1014000008F42C017D01D3019ACFCB010E94110871
:101410007C01009749F0AE01B8010E94170AC8018B
:101420000E94AD0887016BCF10E000E068CFFB01A0
:10143000DC0102C001900D9241505040D8F7089550
:10144000FB01DC0101900D920020E1F70895FB0102
:10145000DC014150504030F08D910190801919F419
:0E1460000020B9F7881B990B0895F894FFCF70
:10146E000000A9038000000000003D025D018A011A
:10147E008A02FB019901ED014576656E7431000D0E
:10148E000A004576656E743200545354310074650B
:10149E0073743100545354320074657374320056B1
:1014AE00613100496E707574313A20005661320018
:0A14BE00496E707574323A20000088
:00000001FF
